:0300000002741077
:0C741000787FE4F6D8FD75810702745700
:1077A60075FFDE75FFAD1200037FAF7E0112787C98
:1077B60012000ED2AFD28CD28EAF8A7E001277978D
:1077C6001276AA1277597C007D2D124EEB9000009E
:1077D600ECF0A3EDF0FF125E5B90012DE070E47D0E
:0A77E60002FF126138127B3480D9D3
:107B7D0043B28775B167E4FFFE0FBF00010EE4B598
:107B8D0007F7EEB401F3E5B130E7FB43B20853B2AA
:017B9D00FBEC
:017B9E0022C4
:107BE300E4F5E1F5E275E34075A4FF75A5FF75A61D
:107BF300FF75A7FF7580FF7590FF75A0FF75B0FF38
:017C0300225E
:09000E00E4F58E127983027D09EC
:06000300127B7D027BE38D
:107C8200D3EF9400EE940040147DB87C0BED1D7090
:0D7C9200011CED4C70F7EF1F70E61E80E343
:017C9F0022C2
:10002E0000EC00FB0138019001AE01B201BF000CE3
:10003E0000160025002C003B00480045004D0079BD
:10004E000089009C00AC00BB00E20083008B009393
:10005E00009C00A50091008700C400D000DC00E9E0
:10006E0000F70106011501260137014A015D0172F3
:10007E000188019F01B801D201EE020B0220024B52
:10008E00026E029302BA02E40310033F037003A44C
:10009E0003DC04160455049704DD0526057505C812
:1000AE000620067D06E0074907B8080408AA092EAF
:1000BE0009BA0A4C0AEA0B900C400CFA0DC00E92CB
:1000CE000F70050101050101060102050102010281
:1000DE0002070104050101050101060102050102E5
:1000EE0002020201020405010105010105020203DB
:1000FE0002020102020701020601020402010402C9
:10010E0001030202010202020202010208FF0502BD
:10011E00020602020001080602030502010602049D
:10012E0000010C0103040602040302010202010194
:10013E00020200010206010204010206010201028E
:10014E00020402020001020102020103020602027F
:10015E000702010602010502031D01010302121925
:10016E000102070102030202070202010304060252
:10017E00040302010202010102020001020601044F
:10018E000102021E0102010304050202010302061E
:10019E0002021F0104070209010301020312FF06F6
:1001AE00010107010101020106010107010101021E
:1001BE00010202010701010601011A0101070101F5
:1001CE000102010102010202011C010103020107E9
:1001DE00020C00010406010203020A0202020302DB
:1001EE0002000110060102020206030202020202CE
:1001FE0001020202020200010401020202020203D3
:10020E000206070106010204060118060102030296
:10021E001202020203020200010806010202020A91
:10022E00000104020206060106050104060110057E
:10023E000202060202000106030202050202060283
:10024E000202020601020805010201020202020672
:10025E000302020202020001060202040302020469
:10026E000208020202030202040202030202040254
:10027E00020302010202050001020202040302024D
:10028E00040208020202010202070102050208012D
:10029E00020206020605020206020404020205021A
:1002AE000206020605021AFF0602070302010502F4
:1002BE0002060202030202050202060204050202FF
:1002CE0003020205020206020200010406020703EF
:1002DE0002010502020602020302020502020602E2
:1002EE0002050204030202020202050204020202D5
:1002FE000302100402100601080402080402080397
:10030E0002020402020502020202080302020402B1
:10031E0003030201020204050208FF0602040202A0
:10032E0004030210FF050204030202060212FF017B
:10033E00031006021007020603020A01031006024A
:10034E0010070210020310070210FF010304060239
:10035E00040302010202010102020001020601036E
:10036E00070101010201060101070101010201025B
:10037E00020107010102020103020104020105024A
:10038E000103020104020105020107020106020433
:10039E00000102060202000108FF03030605020225
:1003AE0003030802030C05020401031005020C06E8
:1003BE0002020702020103060702020702020602F8
:1003CE00040502120602021F0106060204060204BA
:1003DE0005021603020401020204020A03020CFFC4
:1003EE0004020403020603020203020204020205CF
:1003FE0002020502020502040202020202040502C2
:10040E0002050202040202040204000102040202B6
:10041E0004020205020204020204020203020203A3
:10042E000202030208010204060206060202060286
:10043E00020502020402020502020502040502027E
:10044E000102040202020302020402020402080470
:10045E000203050201050202040202030204020263
:10046E00080402040302060302020302020402024B
:10047E00050202050202050204020202020204053E
:10048E000202050202040204040204000102040234
:10049E000204020205020204020204020203020224
:1004AE000302020302080102020602060602020607
:1004BE0002020502020402020502020502020602FF
:1004CE0002070202010304020302030302040302F1
:1004DE0004030400010204030204030203030401E3
:1004EE000302020310FF00010405020404030403C7
:1004FE0003020303020303020502020001020502C6
:10050E0002050202030202050202020302020302B4
:10051E0001030404030204030203030203030203A0
:10052E00030203030405020205020403020205028C
:10053E000202030202030201030401030201030289
:10054E000502040602020602040001020602020669
:10055E000202070202010302020302020302050263
:10056E000202030201030401030202030203030257
:10057E000303040203020203020001020103040347
:10058E00030203030204030203030202030604032D
:10059E00040303040502020502040302020502021B
:1005AE000203020203020103040403020403040310
:1005BE0003020303020303040502020502040302FD
:1005CE0002050202020302020302010302010302F8
:1005DE0001030201030405020206020206020600DE
:1005EE0001020602020602020702020103020203D0
:1005FE0002020302050202040302040302030304BF
:10060E00030302FF02030406020C000108010304A7
:10061E00070204010310000108050202010304058C
:10062E00030205031003030401030405020801037A
:10063E000102030102030602030801031002030470
:10064E000502020602040702020702040702041E44
:10065E00010206020407020A010302010306070251
:10066E0004060220FF02030406020401030207022D
:10067E000401030201030C0103020103020203043D
:10068E000203020203020203080103040103020231
:10069E000304030302030310010302070202010312
:1006AE000401030201030A0203040203020203020D
:1006BE0002030301030101030205030403031AFFEE
:1006CE0006020207020201030405020205020600E9
:1006DE0001020103020203040502080203020303DE
:1006EE0002040304040302030304020302020302CE
:1006FE0003030202030201030607020401030206BA
:10070E000222000103060201030303020301020396
:10071E0002010302030308000102020302030302A3
:10072E00040312FF02030406021C01030807020859
:10073E00010320FF06020305020206020103020660
:10074E000602020502010602010502010202010370
:10075E00020601030106020305020106020105025B
:10076E00010302030502010302010602060302064B
:10077E00FF05020206020203020500010303020145
:10078E00020201030201020201010205000103053A
:10079E000102060101050201030205000102030226
:1007AE000105020202020101020106010500010615
:1007BE0006020305020206020103020606020205F4
:1007CE0002010602010502010202010302060202F3
:1007DE0002010201020202010201020202010201F1
:1007EE0002020203020102020201020102020201DE
:1007FE0002010302020001010502020602010302C8
:10080E0001020201030204000103FF0302010202BE
:10081E0001030201020201010205000103050102AA
:10082E000601010502010302050001020302010592
:10083E00020103020102020101020106010500018B
:10084E000606020305020106020103020606020263
:10085E00050201060201050201020201030206025F
:10086E00020201020102020201020102020201025F
:10087E00010202020302010202020102010202024D
:10088E00030201060202000104FF01030106020336
:10089E000502010602010502010302030202010321
:1008AE000201050202030201020202050201030215
:1008BE00020202010302020001010103010602030A
:1008CE0005020106020105020103020302020103F1
:1008DE000201050202030201020202050201FF06E5
:1008EE0002020502010602020001040601020102D3
:1008FE0001030201020205000103030202050201C7
:10090E00070201060205060202050202070202069E
:10091E00020E060203050202060201030201030390
:10092E00050602020502010602010502010202018C
:10093E000302010601050103010602030502010679
:10094E000201050201030203050201030201060270
:10095E00060502030502020602010302010202015C
:10096E00030204FF0602020502010602020502014D
:10097E00060203000103FF0602020502010602023F
:10098E000502010602020502010602020502010627
:10099E000202000104FF0502060302020202020324
:1009AE0002020502020602020601100202060302FC
:1009BE0002040204030202020202030210050206EE
:1009CE0003020202020203020205020206020206EC
:1009DE0001060202060302020402040302020202DC
:1009EE0002010210000104FF0102010102010102D5
:1009FE0002030202020202020201020201010201CC
:100A0E0001020201020102020202020201020106B9
:100A1E00010106010206010800010207010107019A
:100A2E000107010201020102020102020207010294
:100A3E0006010105010203010103010800010A0379
:100A4E00020102020103020203020102020102027A
:100A5E000202020101020101020402020206010267
:100A6E000601010601010202010102010102040058
:100A7E00010607010107010107010201020102013E
:100A8E00010202040601010501030301040001082D
:100A9E000502030202010202020302020502030220
:100AAE00020102020201020206010800010802020E
:100ABE000306010106010203020202020301020102
:100ACE0001020406010205010800010805020302E5
:100ADE0002010202020302020502030202010202E5
:100AEE0002010202060108000108020203060101CA
:100AFE0006010203020202020301020101020201C7
:100B0E00020102020102020800010AFF01020101B4
:100B1E0002010102020501010102010102020502A8
:100B2E000204020203020202020301020101020890
:100B3E000001010102010302010502010602020584
:100B4E000201060201060201050203060202050267
:100B5E0001030201FF03020102020203020103026A
:100B6E000800010AFF010201010201010202050152
:100B7E000101020101020205020204020203020245
:100B8E000202030102010102080001010102010338
:100B9E000201050201060202050201060201060219
:100BAE0001050203060202050202030201050213F9
:100BBE00FF050208000108FF0502060302020202F9
:100BCE0002030202050202060202060110020206DA
:100BDE0003020204020403020104020103020102E1
:100BEE00020102020103020303020C0502060302C4
:100BFE0002020202030202050202060202010308B9
:100C0E0006020802020603020204020403020104A1
:100C1E0002010302010202010202010302030302A6
:100C2E000CFF030201050203030210FF050201007F
:100C3E00010201020101020101020203020202028B
:100C4E00020202010202010102010102020102017D
:100C5E000202020202020202010102020601010662
:100C6E000108FF050202030202010102050102054D
:100C7E000202020202010102020202050202010246
:100C8E00020102080102020302020502020103022E
:100C9E000401020102020502020102020301020620
:100CAE000102010202050202050202020202020212
:100CBE0004030204040204050208060204070204E7
:100CCE0007020401030402030403030403030403E1
:100CDE000302010302010308050208000108FF05D3
:100CEE0002020302020302040502020202020202CF
:100CFE000403020202020202020201020A000101C0
:100D0E0001020207010206010207010201020207A7
:100D1E00010201020201020202020203020E050298
:100D2E00020302020302040502020202020202048C
:100D3E000302020202020202020102020102080082
:100D4E000101010202070102060102070102070169
:100D5E000201020201020202020201020800010265
:100D6E000502020602020702020103040702020143
:100D7E000302070202060202060202050201040233
:100D8E00010502040701020502010102040202022A
:100D9E00030202040202030202020202010202071D
:100DAE000102000102FF0502020302020302040512
:100DBE00020202020603020202020401020A0001FA
:100DCE0001010202070102060102070102010202ED
:100DDE0007010207010201020201020202020203DE
:100DEE00020C0502020302060502020203020203BE
:100DFE000401030207020207020201030A000101B5
:100E0E0001020207010206010207010201020207A6
:100E1E0001020701020102020102020202020102A4
:100E2E000800010205020206020207020201030483
:100E3E00070202010302070202060202050202066F
:100E4E000202060202050208010202020202030267
:100E5E00020402040302020402020502020102025B
:100E6E0002020203020A0001020502020602020742
:100E7E00020201030407020201030202030201033C
:100E8E000202030203030405020801020202020227
:100E9E00030202040204030202040202030202021B
:100EAE000202020202010202FF07010201020A000F
:100EBE0001020502020303020203020502020303FA
:100ECE0002020306050302030302020302050202E5
:100EDE0003030202030402030205030203030202D8
:100EEE0003020602020303020203040203020502C6
:100EFE0002030302020302030302060202020308B4
:100F0E00000102FF030202060202070202010302AF
:100F1E00070201060201070203060201050204028E
:100F2E000201030204050208000102040202030288
:100F3E000204020205020207020402030201031068
:100F4E00000101FF07010201020201020400010279
:100F5E000502020602020702020103040702020151
:100F6E000302020202010302070202060204050244
:100F7E00060001020102020202020302020402043E
:100F8E00030202040202050202010202010202062B
:100F9E000204050206000102050202060202070211
:100FAE00020103040702020103020203020103020B
:100FBE0002030203030203030205020600010201FB
:100FCE0002020202020302020402040302020402EB
:100FDE0002050202010206020201030201020201DF
:100FEE0001020D00010A05020206020207020201B9
:100FFE0003040702020103020702020602020502AF
:10100E000204020204020205020E0402020302029C
:10101E00020202010202070208010310FF0302028C
:10102E00030204020202010202020204030202058A
:10103E000202050208020204020202050102020275
:10104E000403020202021201020206010206010458
:10105E00060104060102010202060206050202054D
:10106E000204010204010210020210000104FF0238
:10107E00020203020A020202010202050203030235
:10108E000902020203020202020A03020202020320
:10109E00010203060102060108000108010206060C
:1010AE00010202020201020405010201020606010A
:1010BE000202020201020A020204020202030204F6
:1010CE0002020A00010802020203020603020605DA
:1010DE0002020502060302020202020302020202D9
:1010EE0002030202020204020202030202020202CE
:1010FE0001020406010206010800010801020606AB
:10110E0001020102020202040501010501010102B0
:10111E000606010202020201020602020602020293
:10112E0002020403020402020E0502020602020675
:10113E00020205020405020205020606020401036C
:10114E000406020205020206020205020201020262
:10115E0002020802020203020202020206010A0051
:10116E000108010206060102010202020204050143
:10117E000201020606010202020201020606020333
:10118E000602030602020602040302020602020619
:10119E00020205021E000110FF05020203020202F6
:1011AE00020203020203020205020203020203020A
:1011BE0012020203020203030202020203060103E9
:1011CE0002021201020801020206010401020201DA
:1011DE0002080202020102020102020102020602DA
:1011EE0002050206FF050206030202FF06020405BF
:1011FE0002040502060502020602020502020602AA
:10120E00020502020602060502020502020302029E
:10121E000502020302020502040502040602080585
:10122E000202060202050202030210030202020279
:10123E00020102020202020102020202020602047C
:10124E00010202010202070102010202070102016C
:10125E000202060206FF010308070202010302074B
:10126E00020206021A000110050102010202020228
:10127E00020302040402060202010302010202102A
:10128E0000011005021801030806020605020205F8
:10129E000210000108FF010304010304070202010A
:1012AE0003020702020602020602020702020602F9
:1012BE0014000108020304010304070202060206D9
:1012CE0000010207020101030102030201030206EB
:1012DE0002080001080502030203030702030103CB
:1012EE0008070204010304030304020304010304B8
:1012FE0005020206020206020202020201020202B6
:10130E0002020302020202020102020601020001AF
:10131E000406020206020205020406020402030487
:10132E00FF050206010302FF010308070202010383
:10133E00020702020602020602020702020602105B
:10134E0000010C0302020202020102020202020169
:10135E000202020202060204010204070102010255
:10136E000207010201020206020C00010801030835
:10137E000702020103020702020602020602080524
:10138E000201060228FF0602040303030203010200
:10139E00030401030206020205020401030406020D
:1013AE0008060204020304010304060202050202F7
:1013BE0002020405020206020205020203020603ED
:1013CE0002040602030502010602040602020502D9
:1013DE0002060204020303010301020308010303D0
:1013EE0001030101030202030203030203030202CB
:1013FE0003020103020502040103020602020602B1
:10140E0008000104FF0602030602010103020103A4
:10141E000206020600010106020205020203020292
:10142E00050202010302060208060202010306017A
:10143E00030206020205020406020205020202026D
:10144E000205020203020600010203020203020267
:10145E000202020102020302020202060302020655
:10146E000202050202030202060202050208000140
:10147E000206020201030201030306020102030631
:10148E000103020602040502020103020602100015
:10149E000101FF0602040303020203020203040118
:1014AE0003020602020502040103040602080001FB
:1014BE0001060204020304010304060202050202ED
:1014CE0002020405020206020203020405020103DF
:1014DE0002040302040602020502020602040602C8
:1014EE0002050202060204020302010302020308BD
:1014FE0000010101030301030101030202030203C0
:10150E000304020302010302FF05020401030206A3
:10151E000202060218000101060201050201030281
:10152E00020202040202010102010202010302018F
:10153E000502020502020502010202010302010573
:10154E00020106020406020103020105020106025F
:10155E00010103040103010602010103010203015B
:10156E000303040001040103010203010303040049
:10157E000104FF050204010302060202060208002E
:10158E000102FF050204010302060202060208021E
:10159E0003100303100602200001040503020001DC
:1015AE0001050302060208000108FF0602080502F3
:1015BE0002060201070201060202050202060204E9
:1015CE0003020400010806020805020206020107D2
:1015DE0002010602020502020602040302040001D1
:1015EE0008030201050201060201070201060202BA
:1015FE000302020502021D0102030202020202019F
:10160E0002020202020601020102020202020502A7
:10161E000203020202020203020106020107020194
:10162E00020301010302070202060204030202057D
:10163E00020206020406020400010206020203026E
:10164E000102020103020105020106022006020840
:10165E000602060602020502020602020702020640
:10166E000202030204050202060202070208070232
:10167E00020302060602100702080702060702020C
:10168E000602060702020202041B01020202020304
:10169E0002040302040302020702060302100302FD
:1016AE0003050201060202070202060204060204F4
:1016BE0003020205020206020207020202020202EF
:1016CE0002021B01020202020302040302040302CD
:1016DE0002060206030206020202010205000104CE
:1016EE0005020C03020205020205020306020101B5
:1016FE00020402020607010206011C000104060292
:10170E002001030601030201030402030207020281
:10171E000602040702020602020302080302020383
:10172E00020402030202030401030207020206027C
:10173E00040702020602020302080502060502025F
:10174E000602080601060302020202040102020258
:10175E000202030204060204070224070104020324
:10176E000403020207020406020205020206022018
:10177E00000104FF01030601030201030407020432
:10178E000602040702020602020602080302020310
:10179E00020402030202030401030207020206020C
:1017AE0004070202060202060208010306010302F2
:1017BE0001030402030207020206020407020206E4
:1017CE0002020602080302020302040203020203DB
:1017DE0004010302070202060204070202060202C5
:1017EE0003020805020806020806010603020202A9
:1017FE0002040102020202020302040602040702AC
:10180E000807021C07020402030C03020407020469
:10181E00000104070204060228000108FF03020467
:10182E000702080702020602020602180302080354
:10183E000310020302030308020302030308030357
:10184E0018030208070208FF060214070204050225
:10185E000403020202020203021806020403030436
:10186E000203140303040103040602020502020626
:10187E000220030208050202060202070202060205
:10188E000206021007020406020207020205020205
:10189E0003020402020203021000010103020C05FE
:1018AE0002040602020702020502020302020202FB
:1018BE0008030204020202030202010202060104EC
:1018CE0005010206011000010106010802020802CC
:1018DE00020203020406010C0602060702020502BA
:1018EE0002030202030202020202030210000104BA
:1018FE00020208030204050208050204030204069C
:10190E0002040302020202020102060202020302A2
:10191E000402020203020201020206010405010290
:10192E000601080601020102020202020302020679
:10193E000212030204070202060202060210050248
:10194E000206020405020203020803020605020251
:10195E000602030702010502020202020302180038
:10196E00010103020407020206020206021005022A
:10197E000406020205020203020803020605020221
:10198E000602020702020502020202020302180008
:10199E00010106010403020202020202021000010A
:1019AE000102020201020201020202020203020805
:1019BE00020202010204050102FF060118030204DD
:1019CE00070204FF060118060104030202020202C6
:1019DE0002021000010102020401020802020403C5
:1019EE0002100503060302020502020602020103AB
:1019FE00020203020303100303040503040203049B
:101A0E00010304050210060248000128FF05020228
:101A1E00010202FF050202010202000102FF05029D
:101A2E000A03020202020801020203020402020475
:101A3E0000010205020A0302020202080102020765
:101A4E000102010206000102010206050204030260
:101A5E000202020801020203020402020400010251
:101A6E000102060502040302020202020102040040
:101A7E00010E05020A03020202020801020203021B
:101A8E000402020400010205020A03020202020815
:101A9E00010202070102010206000102010206050F
:101AAE0002040302020202080102020302040202FD
:101ABE0002010202000102010206050204030202F3
:101ACE00020202FF020202010206000108FF0102E9
:101ADE0002050202030208050202030202010202CB
:101AEE0005020202020803020202020201020205BC
:101AFE0002020302080502020302020202020102AE
:101B0E000600010801020205020203020805020294
:101B1E00030202010202050202020208030202028D
:101B2E00020201020205020203020805020203027A
:101B3E0002020202010206000102FF050102010279
:101B4E0002020202FF03020C05020203020202025B
:101B5E000800010205010201020202020203020C48
:101B6E000202020102040601060001020501020141
:101B7E00020202020203020C050202030202FF022B
:101B8E000204000202020204030202020202010225
:101B9E001007010201020A02020601021400010CE2
:101BAE00FF02020400020202020403020202020207
:101BBE0001021007010201020A02020601020205D9
:101BCE0002020302080502020302020102020502DA
:101BDE0002020208030202020202010202050202CE
:101BEE0003020605020203020202020201020600BD
:101BFE0001080102020502020302080502020302A5
:101C0E00020102020502020202080302020202029D
:101C1E000102020502020302080502020302020289
:101C2E000202010206000108FF0202040002020283
:101C3E00020403020402020201021000010A05015D
:101C4E0002010202020202FF02020400020202026A
:101C5E00040302020202020102100701020102083D
:101C6E00000108FF0202020102080202040302013F
:101C7E00020201010210FF0501010102010202012F
:101C8E00030208020208050208000103050101070C
:101C9E0001010102010202080701080502100001FC
:101CAE0008060208050208030208020208030208D9
:101CBE0005021000010205020603020205020403DA
:101CCE00020405020C0203040103060302020302CE
:101CDE0004060204050210060206050202060208A8
:101CEE0005020801020403020402020601020206B2
:101CFE000104030204020210050206030202050299
:101D0E000403020405020C0203040103060203028B
:101D1E0003030403020405020C0602040103060673
:101D2E000202050204060204020304010304050272
:101D3E00040602040303060203020103040602085A
:101D4E0001030CFF0502060302020502040302044E
:101D5E0005020C0203040103060302020302040639
:101D6E000204050210060206050202FF060208051D
:101D7E000208FF0102040302040202060102020627
:101D8E000104030204020208020204030204050213
:101D9E000603020205020403020405020C020304F8
:101DAE0001030602030203030401030407020801F0
:101DBE0003040702040602060502020103040602DA
:101DCE0004050208010304070204060206050202C6
:101DDE0006020401030402030803030202030201C4
:101DEE000302020302FF03030602030201030405BA
:101DFE0003040203080303020203020103020203A7
:101E0E000201030607020206020403030407020886
:101E1E000103060702020602060502020603080572
:101E2E00030803030405030404030603030201036A
:101E3E000406020402030803030202030201030262
:101E4E000203020303060203020103040503040254
:101E5E000308030302020302010302020302010349
:101E6E000607020206020401030405030403030A23
:101E7E000203020103040602040303060203020125
:101E8E000304050204000104060202070202010314
:101E9E0004060204010302030306050304030304FC
:101EAE00010304060204FF01031800010401030CE0
:101EBE0003020205020207020C03020207020206D7
:101ECE00020D0102010402010103010103080202D5
:101EDE0002030202050202060202010306060202C4
:101EEE0001030405030403030402030401030206B1
:101EFE000206010320FF060204010304050208FF87
:101F0E0001031800010403020C0502040202100171
:101F1E00030C01030407020805020806020C010364
:101F2E00040502080302040102040202060302026F
:101F3E000302040402040502080302020202020163
:101F4E000202020202FF010318FF03020202020252
:101F5E00010202020202FF0103180001040602023E
:101F6E00070202010304060204010302030306052D
:101F7E000304030304010304060204010318000111
:101F8E0008020208070108050210000108060208EF
:101F9E0005020803020802020803020805021001E6
:101FAE000220000120FF05010201020202020603C7
:101FBE0002040202040302040202020302020502E8
:101FCE0002030202010208020204030204020202D8
:101FDE0003020205020203020201021002020203C0
:101FEE0002060202020302060202040302040102B6
:101FFE000C060104020202030201020201010202A6
:10200E00020202010208000102050102010202029F
:10201E000202FF020202030206020202030206028B
:10202E00020203020205020203020201020401027D
:10203E000205010206010603020202020401020267
:10204E00020202030208000102050102010202025D
:10205E000204030206020202030206020202030245
:10206E000205020203020201020607010206010630
:10207E0003020202020401020202020201020C0128
:10208E000202070102060104010204020204010217
:10209E00020202020302020502020202020302020D
:1020AE0001020401020207010206010401020402F8
:1020BE0002020302010202010102020202020302F3
:1020CE0008000104010202070102060104010204D4
:1020DE0002020203020102020101020202020203D3
:1020EE0002020502040302020602040302020202B5
:1020FE0002010206030202020202030201020201AF
:10210E00010202020202010208000102FF010202A4
:10211E000302020402020502040302020402020583
:10212E000204060202070202010302030204040271
:10213E00020502080602040502020402020502025A
:10214E000103060602060702020103040702040544
:10215E00020403020204020205020406020207023E
:10216E00020103040702020602020502080402022B
:10217E00050202060202040202050202010308071A
:10218E00020205020201020203020402020402021A
:10219E0002010210000102FF010202050202030207
:1021AE0002050202FF0701020502020402020502F5
:1021BE0002070102050202040202050202070102E1
:1021CE00050201040201040202050202FF070102D8
:1021DE00040202040202030202FF070108000102C8
:1021EE00050102010202020202FF010202030202C3
:1021FE000402020502080602040502020402020598
:10220E000202010306060206070202010304070288
:10221E00040502040302020402020502040602027D
:10222E000702020103040702020602020502080465
:10223E000202050202060202040202050202010364
:10224E00060001100103020702020502020102024A
:10225E000302040202020102120103020702020536
:10226E000202010202030204020202010212000132
:10227E0010FF010102020102050102030102FF012A
:10228E000102020102010202020202030204020220
:10229E000203020204020403020204020205020205
:1022AE0001030207020201030206020400010206F4
:1022BE0002020502020103020702020103020303E6
:1022CE0008040304030304020308030208040204BF
:1022DE0003020202020201020C00010201020202CA
:1022EE000202FF03020402020203020204020403BA
:1022FE0002020402020502020103020702020103A6
:10230E000206020400010206020205020201030295
:10231E000702020103020502020302020102020386
:10232E000202040204030204020204010202020277
:10233E000203020402020203020204020403020266
:10234E000402020502020103020702020103020651
:10235E000204000102060202050202010302070244
:10236E00020103020502020302020102020402023A
:10237E000302040202040102040103020702020620
:10238E000204040204020208070202010302070209
:10239E0002060202050204030202050202060204FC
:1023AE0006020207020201030406020201030201F1
:1023BE000303070203070203010303FF02030800DE
:1023CE00010C010302020302FF03030402030201D4
:1023DE0003020702040602020702020103040702B7
:1023EE0002010302050204000102030202040202BA
:1023FE0001030404020201030402030201030203A7
:10240E00030602030601030202030203030402038E
:10241E00020103020702040602020702020103047C
:10242E00070202010302FF0502080402020103046F
:10243E00040202010304020302010302FF01030866
:10244E000001060103010203010303020503020258
:10245E00030205030201030107020106020107023E
:10246E00010103010203010303010103010602122C
:10247E000001020102010202010302020502020230
:10248E000202050202010201010301070201060216
:10249E000107020101030102030103030106020CFD
:1024AE0000010206020107020101030207020201F6
:1024BE0003020203020502040503040303060502D8
:1024CE0004040202030202040202050208060208C4
:1024DE0002020C010202020202FF020308000104C2
:1024EE00010302020302FF010308000104010302BB
:1024FE00020302FF050204000102030202040202AB
:10250E0001030404020201030402030201030A0090
:10251E000106030302050202010302020302050380
:10252E000203030401020202020203020402020277
:10253E000302020402040302020402020502020163
:10254E000302070202010302060204000102060250
:10255E000205020201030207020201030205020242
:10256E000302020102020402020302040202040137
:10257E000204000102050205010303070203010321
:10258E00030502030302030102030402030302050F
:10259E00020205010209FF05010201020202020206
:1025AE0001020800010201020402020101020900F7
:1025BE0001020102040202020302020602020702E3
:1025CE0002010302000202060204050204030202D3
:1025DE0001020202020200010205010201020202D0
:1025EE0002010102090001020102050202010302B9
:1025FE0008000102050102010202020202030202A8
:10260E00060202070202010302000102060204058D
:10261E000204060202030202020202000102010388
:10262E0006FF010302060202250102060306060347
:10263E00020503040303040103020203040103065B
:10264E0006020225010226010225010425010206C9
:10265E000302000102050302030302050302020343
:10266E00040103020702020103020602022501020F
:10267E00060306060302050305060301030302050E
:10268E000302020304010302020302010302070212
:10269E0001010309010302020302FF030302020305
:1026AE0001010303070201010305FF0103040302F5
:1026BE000601020A03020607010A03020601020AC4
:1026CE00020208000102FF010302070202FF0103DA
:1026DE000400010AFF010306060201FF01030403C1
:1026EE00030601030A03030607020A030306010396
:1026FE000A010308FF0102020502020301020102A0
:10270E00020502080202021D010201030202020278
:10271E000402080501020701040402020501020772
:10272E000108010202020201030201050202010276
:10273E00020302080001020302040502040103045D
:10274E0007020406020203020206020A0001020642
:10275E000204070204030304070204050202030233
:10276E000205020A00010203020405020401030429
:10277E000702040602020302020602080702020012
:10278E0001021F01020702020303040203040103F4
:10279E0012000102FF0302040502040103040702F2
:1027AE000406020203020206020A000102060204E5
:1027BE00070204030304070206030202050202FFD6
:1027CE00050208000102FF030204050204FF0103D3
:1027DE0004070202FF0702020103020302020602BD
:1027EE0002000102060202010302070202000102B8
:1027FE001F010207020203030402030401030A037A
:10280E00030202030101030307020206020A030385
:10281E000202030CFF020302010301FF070203067B
:10282E00020205020603020205020202030201036E
:10283E00080103040502040102020302040202025B
:10284E0006020A0001020602090103030602020142
:10285E00030206020201030803030202030C05022F
:10286E0002030302020301010303020302FF030337
:10287E000205020202030203030200010205020224
:10288E000203020303030001020203040303010413
:10289E000303FF030302020302070202FF01030206
:1028AE00030202060202010302000102FF030202FA
:1028BE00060202070202000102FF070204030301DF
:1028CE0005030303030201030207020206020204C8
:1028DE0003060001020503020403020303020502BC
:1028EE0002030306000102040302030302010302B2
:1028FE00FF1D010202030600010202030201030290
:10290E000303020001020203020103020303040295
:10291E000302010304FF1D010202030E0001020364
:10292E00030201030403030302030301030A030268
:10293E00020402020502020303020203040303025D
:10294E00060206000102070201010301020307014C
:10295E000301020301030301040301030301040342
:10296E00010503010403010503010603010503012B
:10297E0004030106030107030106030107030125F2
:10298E0001012601012501010703010603010503CB
:10299E0004FF060204050204000102FF0103040203
:1029AE000302FF030302020301FF050302020302F7
:1029BE00010302FF030202010302070202FF1D01CF
:1029CE000202030A020302010312000102030302C0
:1029DE000103040303030203030103120202021D97
:1029EE0001020103020202020402080501020701AC
:1029FE00020402020501020601040701040102108D
:102A0E00FF02020205010201020202020205010298
:102A1E000102020202020502020102020202020683
:102A2E000102020202050104050202030204010270
:102A3E00010701010601060402020302020102045B
:102A4E00020202010206FF0501020601020501044F
:102A5E000102020701060501020601020501040238
:102A6E00020201020605010205020203020401022E
:102A7E00020701020601040402020302020102041B
:102A8E00020202010206FF01020205020201020217
:102A9E000202020501020102020202020501020106
:102AAE0002020202020502020102020202020601F3
:102ABE0002020202050104050202010202020202E2
:102ACE0005010201020202020205010201020202D6
:102ADE000202050202010202020202010206FF05C3
:102AEE0001020502020302040102010701010601AF
:102AFE00060402020302020102040202020102069D
:102B0E00FF01020205020201020202020205010297
:102B1E000102020202020501020102020202020584
:102B2E000202010202020202060102020202050173
:102B3E000405020201020202020205010201020262
:102B4E000202020501020102020202020502020154
:102B5E000202020202010202050202010302000148
:102B6E0002FF010302020302030302020302010336
:102B7E00020602020001020303020403030303011F
:102B8E000203080001040702020103020203020706
:102B9E0002040502020001020702020203030103FE
:102BAE000903020804020C02020403020601020ACF
:102BBE00050208020204050104FF030206020202D6
:102BCE0003020201020602020601020202020205CD
:102BDE0002060102060601020102020601020001BE
:102BEE0002050102020206030202060102050106A7
:102BFE000402060302020402020102060202060198
:102C0E000202020202050206000110030202020283
:102C1E000403020203020406010401020400011669
:102C2E00FF01020402020203020800010203020273
:102C3E00020202010202070104050204000102055C
:102C4E00020206020207020201030403020400014B
:102C5E000201030207020201030207020403020239
:102C6E000502080602020103020502020602040022
:102C7E000202060202050202040202050202030219
:102C8E000402020201020400010206010101020116
:102C9E000302020202040102020202020502040100
:102CAE000204020204FF020202000112FF010204EA
:102CBE0002020203020402020203020200010203E4
:102CCE0002020202020102020502040302020502CE
:102CDE000200010205020206020207020201030AB5
:102CEE00070202060202070202060202030204059E
:102CFE000208060202010302050202060204000196
:102D0E000206020205020203020205020203020487
:102D1E000202020102040001020601010102010386
:102D2E000202020204010202020202010204060170
:102D3E0002FF01020400010A050101060101010260
:102D4E000400010103020104020105020106020151
:102D5E000702010103010203022101020303030220
:102D6E000304060204050202000102050101060128
:102D7E000101020206010201020206010101020224
:102D8E000601010102020302020202040102020212
:102D9E000202010201020202010201020202050206
:102DAE0002020202050101060101070101010201F1
:102DBE0002020103020104020105020106020305DB
:102DCE0002030202020001020602010502010302D1
:102DDE0001020201010201070101060101070102C0
:102DEE0001020306010202020103020104020105AF
:102DFE00020106020107020101030102030106029C
:102E0E000307020301030202030C00010205010283
:102E1E00FF020202000102FF010204000116FF067A
:102E2E000102010206000106060101010201030270
:102E3E000202020401020202020401020400010C59
:102E4E0006010401020C000104FF0102100501102D
:102E5E0006011005010CFF01030202030203030227
:102E6E000502020103020203010303040001020230
:102E7E000302010302020302040301050308000119
:102E8E000201030207020301030A00010207020204
:102E9E00010302070202FF070201FF0103020702FC
:102EAE0002060202050202000102FF0502050602E9
:102EBE000A000102050202030202050202030202D7
:102ECE00FF050202010301020301010304000102D6
:102EDE00FF050202FF020301FF03030604030205BE
:102EEE000302010304020301030301FF02030C00AA
:102EFE000108FF05020C060202050202030202058A
:102F0E000202000102FF070102010204030207048C
:102F1E00020103020201020402020203020800017E
:102F2E000203020202020201020A00010201020869
:102F3E000501040202010302030102040501020459
:102F4E00020A060102010204020208000108FF053E
:102F5E00020601030706020203020205020106022F
:102F6E000105020C00010205020403020205020122
:102F7E000602020502010602060001020502010612
:102F8E000202050202040202050206010301020307
:102F9E0003010304050202020301030306040302F4
:102FAE0005030401030202030103030602030C00DE
:102FBE00010CFF02030CFF050204FF050201FF06D0
:102FCE0002020102020402020502010602030001CE
:102FDE0002050202030202050202030202FF0502BB
:102FEE0002010302020302010304000102FF0502B3
:102FFE000203030104030503030204030203030295
:10300E00010303020301FF02030201030E02020188
:10301E00030202020202010202020204010202077C
:10302E00010301020E030202040202050204010260
:10303E000302020505020402020103020D00010251
:10304E000602010702010103040203010303020247
:10305E00030600010203030105030123010203031A
:10306E0002070302250106050301060302050306F6
:10307E00020301030302020304050202010301021B
:10308E00030201030E000108FF02030201030AFFFF
:10309E00050202010301020301010306FF030302FD
:1030AE0002030AFF050202010301020301010306E6
:1030BE00FF050202030301040306030302040303D4
:1030CE0005030201030302030301030102030101CD
:1030DE00031002030103030C0202010302020202A7
:1030EE000E01020202020201020E00010404020697
:1030FE0005020A010210FF05020803020205020280
:10310E00FF060206030204FF020202FF010202058D
:10311E000101060101010202020202FF0302020284
:10312E00020203020CFF050202020202FF01020666
:10313E00050202030202020202010206050104FF59
:10314E00050102010206020204030202FF05020249
:10315E000302080601020102060202020102020631
:10316E000102050106000104FF0602020302020528
:10317E000206FF030201020201FF0102060202041F
:10318E00050202030202020208030202FF06020205
:10319E0001030206020603020202020201020402F7
:1031AE0002040302080001040302020502060001E4
:1031BE0002030204020202010208060102020204D4
:1031CE0001020203020402020101020D00010AFFC4
:1031DE00030202FF060205010302060204030202B5
:1031EE0002020401020202020205020103020700AA
:1031FE00010403020205020600010203020202029A
:10320E000206010201020402020403020202020289
:10321E00010210000104030202FF0602060302026D
:10322E0002020401020602020405020203020CFF5E
:10323E00010204050102FF0202040302020202025D
:10324E00010208FF05010106010101020602020446
:10325E0005020106020203020B0502010602040525
:10326E00020206020205020202020203020A010221
:10327E000202020200010201020202020201020225
:10328E00060102020202030201020205010202020B
:10329E000208030202060202050216FF03020205DD
:1032AE00020A00010203020A0202010302010601E0
:1032BE0006050106030106000106FF0602080302C9
:1032CE0002020202010202060103010201020202CF
:1032DE0003020302020101020803020205020206B2
:1032EE00020605020603020A05020206020805028C
:1032FE000403020A01020202020A0102020202068B
:10330E0006010601020A020202060204050210006C
:10331E000102FF05020200010A030202FF06020675
:10332E000302020202020102020102060202040567
:10333E00020203020CFF020201010201FF0302025C
:10334E00050208030202050202FF010206FF050242
:10335E0002000128030202FF05020202020201021C
:10336E000CFF050102010202050102010202050124
:10337E0002010202000102FF050101060101010224
:10338E00010202020102040701010102020202020D
:10339E0001020200010407010206010419010106DF
:1033AE0001050001020601020202010302020202ED
:1033BE0004060102020201030202020206070102D2
:1033CE0006010405010106010105010400010205C3
:1033DE0001010601010102010202020102020001C5
:1033EE0002010201070101010201020202010202B1
:1033FE00000104060101070102060105070101068D
:10340E00010400010206010202020103020202028D
:10341E00040601020202010302020202040001017B
:10342E00020203030203040202030201020202006B
:10343E000102FF0102010202010502010402010361
:10344E00020302020103020302020103020302024B
:10345E000103020102020101020107010101020A38
:10346E00FF0102020001040601020502020402032A
:10347E00030201040203030201040205030201FF19
:10348E0002020101020102020C000102FF0402010C
:10349E00050201FF05020202020A000102FF0502F7
:1034AE000202020A000102010201070101010201EA
:1034BE0002020103020C01020107010101020103D4
:1034CE0001010202040102080102010701010102C9
:1034DE000102020103020C040201030201040201B3
:1034EE00050201020204010208000102FF010202AC
:0434FE00000104FFC6
:107C040041012B0041012C0042012F000041012EB3
:0F7C1400004201290000410126004200AE01AFED
:10749C007E007C037DE8124E84E4FCFD9000021219
:1074AC00504CE47F18FEFDFC900002E0F8A3E0F9DC
:1074BC00A3E0FAA3E0FB124F21E47B0CFAF9F812DB
:1074CC004FAC90000212504C900002E0F8A3E0F98F
:1074DC00A3E0FAA3E0FBC3E49BFFE49AFE740199DA
:1074EC00FDE498FCE4FB7A01F9F8124FAC90012B07
:1074FC00EFF0900002A3A3A3E0FBC3E49BFF900179
:03750C002CEFF071
:01750F002259
:107CF100E4FFFE124E3EF4600E740129F9E43AFAF3
:077D01000FBF00010E80EC32
:017D08002258
:107983007589117F0512749C90012BE0F58CA3E09F
:10799300F58AD2A990012EE0FF2431F582E4340167
:1079A300F583E0F58D74B02FF582E43400F583E0C0
:0579B300F58BD2AB22B0
:10350200EF8EF01250583C4000033C4700043C4907
:1035120000053C4B00063C5200073C5900083C5B4E
:1035220000093C62000A3C69000B3C70000C3C77CD
:10353200000D3C7E000E3C85000F3C8700103C894C
:1035420000113C9000123C9700133C9900143CA0DF
:1035520000153CA700163CAE00173CB500183CB75E
:1035620000193CB9001A3CC0001B3CC2001C3CC9FB
:10357200001D3CD0001E3CD7001F3CD900203CDB84
:1035820000213CDD00223CE400233CEB00243CF221
:1035920000253CF900263D0000273D0700283D0993
:1035A20000293D10002A3D17002B3D1E002C3D2511
:1035B200002D3D2C002E3D2E002F3D3000303D329F
:1035C20000313D3400323D3B00333D4200343D4446
:1035D20000353D4B00363D4D00373D5400383D5BD4
:1035E20000393D62003A3D69003B3D70003C3D7749
:1035F200003D3D79003E3D7B003F3D7D00403D84E6
:1036020000413D8B00423D8D00433D9400443D9B73
:1036120000453DA200463DA400473DAB00483DB2F7
:1036220000493DB9004A3DBB004B3DC2004C3DC97B
:10363200004D3DD0004E3DD2004F3DD400503DD60E
:1036420000513DD800523DDA00533DDC00543DDECE
:1036520000553DE000563DE200573DE400583DE68E
:1036620000593DE8005A3DEA005B3DEC005C3DEE4E
:10367200005D3DF5005E3DF7005F3DF900603DFBFA
:1036820000613DFD00623DFF00633E0600643E08AE
:1036920000653E0A00663E0C00673E0E00683E1062
:1036A20000693E12006A3E14006B3E1B006C3E1D18
:1036B200006D3E24006E3E26006F3E2800703E2ABA
:1036C20000713E3100723E3800733E3F00743E414D
:1036D20000753E4800763E4F00773E5600783E5DCC
:1036E20000793E64007A3E6B007B3E6D007C3E7446
:1036F200007D3E76007E3E78007F3E7F00803E86E3
:1037020000813E8D00823E9400833E9600843E9D61
:1037120000853E9F00863EA600873EAD00883EB4EF
:1037220000893EBB008A3EC2008B3EC4008C3EC66E
:10373200008D3EC8008E3ECA008F3ECC00903ECE29
:1037420000913ED000923ED700933ED900943EDBDA
:1037520000953EDD00963EE400973EEB00983EF277
:1037620000993EF9009A3EFB009B3F02009C3F09F4
:10377200009D3F0B009E3F0D009F3F1400A03F1B8A
:1037820000A13F1D00A23F2400A33F2600A43F2822
:1037920000A53F2F00A63F3600A73F3D00A83F3FB0
:1037A20000A93F4600AA3F4D00AB3F5400AC3F5B2F
:1037B20000AD3F5D00AE3F5F00AF3F6100B03F68CC
:1037C20000B13F6F00B23F7100B33F7300B43F7A64
:1037D20000B53F7C00B63F7E00B73F8500B83F8C06
:1037E20000B93F9300BA3F9A00BB3FA100BC3FA87B
:1037F20000BD3FAA00BE3FB100BF3FB300C03FBA09
:1038020000C13FBC00C23FC300C33FC500C43FC7A5
:1038120000C53FC900C63FCB00C73FCD00C83FCF60
:1038220000C93FD100CA3FD300CB3FD500CC3FD720
:1038320000CD3FD900CE3FDB00CF3FE200D03FE9D1
:1038420000D13FF000D23FF700D33FFE00D4400545
:1038520000D5400C00D6401300D7401500D8401CBC
:1038620000D9401E00DA402500DB402700DC402E54
:1038720000DD403500DE403C00DF404300E0404ACE
:1038820000E1405100E2405800E3405F00E4406143
:1038920000E5406300E6406A00E7406C00E8406EE5
:1038A20000E9407500EA407700EB407E00EC40857D
:1038B20000ED408C00EE408E00EF409000F040970B
:1038C20000F1409900F240A000F340A700F440A9A3
:1038D20000F540AB00F640AD00F740B400F840BB45
:1038E20000F940C200FA40C900FB40D000FC40D7BA
:1038F20000FD40DA00FE40DC00FF40DF010040E254
:10390200010140E4010240E7010340EE010440F1FD
:10391200010540F8010640FA01074101010841038F
:1039220001094105010A4108010B410A010C410D3F
:10393200010D410F010E4111010F411401104117F8
:10394200011141190112411C0113411F01144122AD
:103952000115412401164127011741290118412B64
:1039620001194132011A4139011B4140011C4142F6
:10397200011D4149011E414B011F414D012041548E
:1039820001214156012241580123415F0124416135
:1039920001254163012641650127416C0128416EE1
:1039A20001294175012A417C012B4183012C41856A
:1039B200012D4187012E418E012F41950130419CFD
:1039C200013141A3013241AA013341B1013441B86D
:1039D200013541BF013641C6013741CD013841D4DD
:1039E200013941D7013A41DA013B41DD013C41E075
:1039F200013D41E3013E41E6013F41E9014041EC25
:103A0200014141EF014241F6014341FD014441FFC1
:103A1200014542010146420301474205014842086D
:103A22000149420A014A420D014B4214014C42161D
:103A3200014D4218014E421A014F421C0150421ED2
:103A4200015142200152422301534225015442288E
:103A52000155422A0156422D015742300158423245
:103A620001594235015A4238015B423B015C4242F4
:103A7200015D4245015E424C015F424E016042558A
:103A82000161425C016242630163426A0164427104
:103A9200016542740166427B0167427E016842858C
:103AA20001694287016A428A016B4291016C429329
:103AB200016D4295016E4297016F429E017042A0D4
:103AC200017142A2017242A4017342A6017442A88A
:103AD200017542AA017642AC017742B3017842B540
:103AE200017942B7017A42B9017B42BB017C42C2F1
:103AF200017D42C4017E42CB017F42D2018042D489
:103B0200018142DB018242DD018342DF018442E620
:103B1200018542ED018642F4018742F6018842F8AE
:103B2200018942FA018A42FC018B4303018C430A58
:103B3200018D4311018E4318018F431F01904326CB
:103B42000191432D0192432F019343310194433359
:103B52000195433501964337019743390198433B19
:103B62000199433D019A433F019B4341019C4343D9
:103B7200019D4345019E4347019F434901A0435094
:103B820001A1435701A2435901A3435B01A4435D31
:103B920001A5435F01A6436101A7436301A8436AEC
:103BA20001A9437101AA437301AB437A01AC43817A
:103BB20001AD438801AE3C0001AF3C0001B03C00C6
:103BC20001B13C0001B23C0301B33C0A01B43C0C1C
:103BD20001B53C0E01B63C1001B73C1201B83C14D1
:103BE20001B93C1B01BA3C2201BB3C2401BC3C2B69
:103BF20001BD3C3201BE3C3901BF00003C00024322
:103C02008F7BFF7A01791C22800F801D801480191E
:103C1200801E7BFF7A03793D227BFF7A0179AD22F8
:103C220080077BFF7A037929227BFF7A0279B62209
:103C32007BFF7A037933227BFF7A037959227BFF58
:103C42007A0379A8228009801E7BFF7A06791222E4
:103C52007BFF7A0379EE22800E7BFF7A067973224C
:103C62007BFF7A0679CE227BFF7A0479F4227BFFEE
:103C72007A077932227BFF7A077942227BFF7A0721
:103C8200797F22800980177BFF7A0879ED227BFFFA
:103C92007A0879192280077BFF7A097972227BFFE1
:103CA2007A087998227BFF7A097985227BFF7A0943
:103CB20079A422801980247BFF7A0B7963228029E0
:103CC2007BFF7A0B79BF227BFF7A0B79C6227BFFBF
:103CD2007A0979F62280048009800E7BFF7A0B79BB
:103CE2001A227BFF7A0C7930227BFF7A0B797322BE
:103CF2007BFF7A0C793A227BFF7A0C7971227BFF67
:103D02007A0C79ED22800E7BFF7A0E79B7227BFF47
:103D12007A0F7912227BFF7A0D79B4227BFF7A0F18
:103D22007952227BFF7A10792B22800D8024801217
:103D3200802E7BFF7A127964227BFF7A10797D22B2
:103D420080107BFF7A1179F32280157BFF7A12793A
:103D5200A4227BFF7A1179A7227BFF7A13792F2283
:103D62007BFF7A1179FA227BFF7A137936227BFF65
:103D72007A13799422800B800980177BFF7A157958
:103D820017227BFF7A1479132280077BFF7A157939
:103D920081227BFF7A1479A1227BFF7A1579912205
:103DA20080007BFF7A1579B9227BFF7A177982220C
:103DB2007BFF7A18792B2280077BFF7A1979C82238
:103DC2007BFF7A187956227BFF7A1979D2228042B8
:103DD2008040803E803C803A803880368034803219
:103DE2008030802E802C802A802880267BFF7A1AC1
:103DF200792222805F80248036803B80497BFF7A53
:103E02001B798D22800C800A800880068004800243
:103E120080007BFF7A1A791B2280397BFF7A1A791C
:103E2200D222800B8010801E7BFF7A1B79AF227B0F
:103E3200FF7A1A79DC227BFF7A1B79492280077B81
:103E4200FF7A1C7937227BFF7A1B7953227BFF7A18
:103E52001C7956227BFF7A1A792C227BFF7A1C79F5
:103E620072227BFF7A1C79852280127BFF7A1D7970
:103E72007A22801780357BFF7A1E79B5227BFF7A02
:103E82001D7952227BFF7A1F7904227BFF7A1D79EA
:103E9200812280177BFF7A1F790E22800E7BFF7AA8
:103EA2001F7954227BFF7A1F7958227BFF7A1D7972
:103EB200F4227BFF7A1F7965227BFF7A1F79B42275
:103EC200802E8035801580138011800F80147BFF37
:103ED2007A2179DB228004800280007BFF7A2179BB
:103EE200A6227BFF7A2179B3227BFF7A2179E8220D
:103EF2007BFF7A2079212280007BFF7A21791B22A5
:103F02007BFF7A2179F822800280007BFF7A227976
:103F120080227BFF7A22798D2280127BFF7A23799D
:103F2200CA22802780177BFF7A24794B227BFF7A73
:103F32002279F1227BFF7A2479E822800E7BFF7AB4
:103F4200247935227BFF7A2479F5227BFF7A237943
:103F5200D7227BFF7A25790222800B802D80327B4B
:103F6200FF7A2679B9227BFF7A2579A522801B80E8
:103F7200207BFF7A2679D522801080157BFF7A2656
:103F820079DC227BFF7A2679E3227BFF7A2679305D
:103F9200227BFF7A2679A9227BFF7A2679EA227B85
:103FA200FF7A2779032280387BFF7A2779CE228015
:103FB2003D7BFF7A2779DC2280427BFF7A287923B6
:103FC2002280478067804C80718051807B80568040
:103FD2005B804080658045806F7BFF7A297924224F
:103FE2007BFF7A2779A3227BFF7A2979A0227BFFA4
:103FF2007A2779D5227BFF7A2979AA227BFF7A2731
:1040020079E3227BFF7A2979B1227BFF7A28792A08
:104012002280197BFF7A2879A122801E7BFF7A28D1
:1040220079BB2280237BFF7A2879FF227BFF7A28C3
:10403200797C227BFF7A2979B8227BFF7A2879ABB7
:10404200227BFF7A2979C2227BFF7A2879C8227BD8
:10405200FF7A2979CC227BFF7A2A790F2280168077
:10406200147BFF7A2A799522800B80097BFF7A2ABA
:1040720079ED2280007BFF7A2A7955227BFF7A2B09
:10408200790F227BFF7A2B797022801280247BFFAA
:104092007A2C79B42280297BFF7A2D7940227BFF0A
:1040A2007A2B79C822800B801080157BFF7A2E79BB
:1040B20026227BFF7A2C792F227BFF7A2E791F22F0
:1040C2007BFF7A2C79BB227BFF7A2E792D227BFF14
:1040D2007A2E7958220241AA80660241B1024187B2
:1040E20080690241957BFF7A2E79E32202419C7B13
:1040F200FF7A2E79FA2280387BFF7A2F7914228078
:104102002F80340241AA80380241B18078803C027B
:10411200419502419C803F0241AA0241B10241B84D
:1041220080410241BF8045804A7BFF7A3079152267
:104132007BFF7A2F7901227BFF7A2F795D228068BB
:104142007BFF7A2E79A5228066803A7BFF7A2E79D0
:10415200CF22803F80447BFF7A2F79C12280498021
:104162004E80537BFF7A2F79C92280517BFF7A2FB1
:1041720079EC227BFF7A2F79FC227BFF7A307997C8
:10418200228025802A7BFF7A2E79B9227BFF7A3022
:10419200799E227BFF7A2E79DF227BFF7A2E79E7C6
:1041A200227BFF7A3079AB227BFF7A2E7965227BE4
:1041B200FF7A2E79A9227BFF7A2F79C5227BFF7A9B
:1041C2002F79CD227BFF7A3079B2227BFF7A307948
:1041D200BF2202430302430A02431102431802426E
:1041E200FC02430302430A0243110243117BFF7A9A
:1041F200317934227BFF7A31793B228056804D809F
:1042020052805702428A80600243037BFF7A3179EF
:104212009B22803F8036803B80408045804A02431B
:1042220003804F024303805402430302430A80582F
:104232000242E60242ED0242C47BFF7A3279AA22AE
:104242000243037BFF7A3279C92280077BFF7A31EE
:10425200795B227BFF7A31794E227BFF7A31797743
:10426200227BFF7A3179DE227BFF7A317988220242
:1042720043037BFF7A3179E2220243037BFF7A32E6
:10428200792822807C02430A7BFF7A31798122805D
:10429200538058802D7BFF7A3379212280638032CC
:1042A200805F80648037803C80417BFF7A33794B2A
:1042B20022801F804C805180247BFF7A33795822E0
:1042C20080297BFF7A327952227BFF7A33795C2212
:1042D200802F7BFF7A33792B228026802B7BFF7AFB
:1042E200337944227BFF7A32793E227BFF7A32791C
:1042F2004522800D80128017801C7BFF7A31792A3B
:10430200227BFF7A317905227BFF7A31790F227B7A
:10431200FF7A317916227BFF7A31791A227BFF7A72
:10432200337966227BFF7A33797022803B8050801A
:10433200408045804A803A800E8026802B804080D3
:10434200308035803A802A7BFF7A34799B227BFF4A
:104352007A3479AC22801180268016801B802080DE
:10436200107BFF7A3479A2227BFF7A33798622800E
:104372000E7BFF7A34796F227BFF7A34798E227B2F
:10438200FF7A347941227BFF7A3479FB227BFF7AF0
:044392000079D022BC
:10509100EFC39401400DEFD394035007EF25E024B3
:1050A100168037EFC39404400DEFD394075007EFF8
:1050B10025E024158024EFC39408400DEFD3940913
:1050C1005007EF25E024098011EFC3940A400FEF48
:1050D100D3940C5009EF25E0240A90005CF0E4FF22
:1050E100EF75F00CA4FE90005CE0FD2EFC25E024A1
:1050F10040F582E43400F583E493FA740193FBEF05
:1051010075F00EA4245EF582E43400F583EAF0A381
:10511100EBF0EC25E02444F582E43400F583E493DC
:10512100FA740193FBEF75F00EA42460F582E43468
:1051310000F583EAF0A3EBF0ED2EFE25E02448F51F
:1051410082E43400F583E493FC740193FDEF75F080
:105151000EA42462F582E43400F583ECF0A3EDF0B3
:10516100EE25E0244AF582E43400F583E493FC74EF
:105171000193FDEF75F00EA42464F582E43400F58B
:1051810083ECF0A3EDF0EF75F00CA4FE90005CE071
:10519100FD2EFC25E0244EF582E43400F583E493F2
:1051A100FA740193FBEF75F00EA42466F582E434E2
:1051B10000F583EAF0A3EBF0EC25E02452F582E45C
:1051C1003400F583E493FA740193FBEF75F00EA4B8
:1051D1002468F582E43400F583EAF0A3EBF0ED2EC8
:1051E100FE25E02456F582E43400F583E493FC7453
:1051F1000193FDEF75F00EA4246AF582E43400F505
:1052010083ECF0A3EDF0EE25E02442F582E43400D6
:10521100F583E493FC740193FDEF75F00AA42488EF
:10522100F582E43400F583ECF0A3EDF0EF75F00CBA
:10523100A4FE90005CE0FD2EFC25E02446F582E40E
:105241003400F583E493FA740193FBEF75F00AA43B
:10525100248AF582E43400F583EAF0A3EBF0EC252F
:10526100E0244CF582E43400F583E493FA7401936D
:10527100FBEF75F00AA4248CF582E43400F583EA8F
:10528100F0A3EBF0ED2EFE25E02450F582E434008E
:10529100F583E493FC740193FDEF75F00AA4248E69
:1052A100F582E43400F583ECF0A3EDF0EE25E02483
:1052B10054F582E43400F583E493FC740193FDEF2B
:1052C10075F00AA42490F582E43400F583ECF0A390
:1052D100EDF00FEF640360030250E190005CE0FF2A
:1052E10025E02488F582E43400F583E493FD74011C
:1052F100939000A6CDF0A3EDF0EF25E0248CF5828C
:10530100E43400F583E493FF7401939000A8CFF097
:10531100A3EFF0E490005DF090005DE0F9C3942606
:105321004003025431E925E0245EF582E43400F5BE
:1053310083E0FEA3E0FF7C007D0C124E84AB07AA44
:1053410006E4F9F8FF7E367D6E0C1278C1EC124D41
:105351007FE4FBFAF9783F124C79124DBD9000AC15
:10536100EEF0FCA3EFF09000AAEEF0A3EFF0FBE467
:10537100C39BFFE49CFE74019400FDE49400FCE4F3
:10538100FB7A01F9F81278C190005DE02431F582D1
:10539100E43401F583EFF09000ACE0FEA3E0FBE420
:1053A100C39BFFE49EFE74019400FDE49400FCE4C1
:1053B100FB7A01F9F81278C190005DE024B0F58222
:1053C100E43400F583EBF09000AAE0FEA3E0FBE4F7
:1053D100C39BFFE49EFE74019400FDE49400FCE491
:1053E100FB7A01F9F81278C190005DE024D7F582CB
:1053F100E43400F583EFF09000AAE0FEA3E0FBE4C3
:10540100C39BFFE49EFE74019400FDE49400FCE460
:10541100FB7A01F9F81278C190005DE024FDF58274
:10542100E43400F583EBF090005DE004F0025319E1
:10543100900123E0FBA3E0FAA3E0F990012FE0FE45
:10544100A3E0FFE92FF9EA3EFA900001124E5775E9
:10545100F007A4FD900123A3E0FAA3E0F98F828E67
:0B54610083124E572D24F890012EF00E
:01546C00221D
:10546D0090005AEEF0A3EFF0C39403EE9400400FBA
:10547D00D3E0940990005AE0940050030255C8906F
:10548D00005AE07004A3E0640A70057F0B02580A0D
:10549D0090005AE0FEA3E0FFC3940BEE9400400E83
:1054AD00D3EF940CEE940050057F0A02580A900039
:1054BD005AE0FEA3E0FFC3940DEE9400400ED3EF2F
:1054CD009416EE940050057F0202580A90005AE09F
:1054DD00FEA3E0FFC39417EE9400400ED3EF941C8F
:1054ED00EE940050057F0302580A90005AE07004B4
:1054FD00A3E0641D70057F0502580A90005AE0FE76
:10550D00A3E0FFC3941EEE9400400ED3EF9425EE5E
:10551D00940050057F0302580A90005AE0FEA3E064
:10552D00FFC39426EE9400400ED3EF9429EE940021
:10553D0050057F0502580A90005AE07004A3E064FC
:10554D002A70057F0C02580A90005AE0FEA3E0FF76
:10555D00C3942BEE9400400ED3EF942CEE94005098
:10556D00057F0502580A90005AE0FEA3E0FFC394A0
:10557D002DEE9400400ED3EF943BEE940050057F3A
:10558D000202580A90005AE0FEA3E0FFC3943CEEDD
:10559D009400400ED3EF9445EE940050057F020227
:1055AD00580A90005AE0FEA3E0FFC39446EE940023
:1055BD00400ED3EF9448EE940050057F0402580A34
:1055CD0090005AE0FEA3E0FFC39449EE9400400E14
:1055DD00D3EF944DEE940050057F0302580A9000CE
:1055ED005AE0FEA3E0FFC3944EEE9400400ED3EFBD
:1055FD009472EE940050057F0702580A90005AE00D
:10560D00FEA3E0FFC39473EE9400400ED3EF9479A4
:10561D00EE940050057F0802580A90005AE0FEA350
:10562D00E0FFC3947AEE9400400ED3EF9486EE948F
:10563D000050057F0402580A90005AE0FEA3E0FFD7
:10564D00C39487EE9400400ED3EF9489EE940050EE
:10565D00057F0A02580A9000AEE0FEA3E0FFC39456
:10566D008AEE9400400ED3EF949AEE940050057F8D
:10567D000C02580A9000AEE0FEA3E0FFC3949BEE2F
:10568D009400400ED3EF949CEE940050057F0702DA
:10569D00580A9000AEE0FEA3E0FFC3949DEE940087
:1056AD00400ED3EF94ACEE940050057F0502580ADE
:1056BD009000AEE0FEA3E0FFC394ADEE9400400E6B
:1056CD00D3EF94B7EE940050057F0802580A90006E
:1056DD00AEE0FEA3E0FFC394B8EE9400400ED3EF0E
:1056ED0094BBEE940050057F0202580A9000AEE084
:1056FD00FEA3E0FFC394BCEE9400400ED3EF94E202
:10570D00EE940050057F0402580A9000AEE0FEA30F
:10571D00E0FFC394E3EE9400400ED3EF94ECEE94CF
:10572D000050057F0302580A9000AEE0FEA3E0FF93
:10573D00C394EDEE9400400ED3EF94FBEE94005025
:10574D00057F0302580A9000AEE0FEA3E0FFC3946C
:10575D00FCEE9400400ED3EF9438EE940150057F8B
:10576D000A02580A9000AEE0FEA3E0FFC39439EEA2
:10577D009401400DD3EF9490EE940150047F02807C
:10578D007C9000AEE0FEA3E0FFC39491EE94014047
:10579D000DD3EF94AEEE940150047F02805F900024
:1057AD00AEE0B40109A3E0B4AF047F02804F9000D6
:1057BD00AEE0B40109A3E0B4B0047F02803F9000D5
:1057CD00AEE0B40109A3E0B4B1047F04802F9000D2
:1057DD00AEE0B40109A3E0B4B2047F04801F9000D1
:1057ED00AEE0FEA3E0FFC394B3EE9401400DD3EF02
:1057FD0094BFEE940150047F0380027F01125091FB
:01580D002278
:10674600C3EF94B3EE9401400CD3EF94BFEE9401E3
:1067560050037F1A22C3EF9403EE9400400CD3EF4C
:10676600940CEE940050037F1A22C3EF940DEE941E
:1067760000400CD3EF9416EE940050037F3622C3EC
:10678600EF9417EE9400400CD3EF9425EE9400504E
:10679600037F2C22C3EF9426EE9400400CD3EF9493
:1067A6002CEE940050037F2022C3EF942DEE94002C
:1067B600400CD3EF943BEE940050037F1922C3EFB5
:1067C600943CEE9400400CD3EF9445EE94005003B5
:1067D6007F1922C3EF9446EE9400400CD3EF944801
:1067E600EE940050037F1522C3EF9449EE940040C7
:1067F6000CD3EF944DEE940050037F1922C3EF940F
:106806004EEE9400400CD3EF9479EE940050037F43
:106816001B22C3EF947AEE9400400CD3EF9489EEDA
:10682600940050037F1422C3EF948AEE9400400C28
:10683600D3EF949CEE940050037F1D22C3EF949DEA
:10684600EE9400400CD3EF94ACEE940050037F20FE
:1068560022C3EF94ADEE9400400CD3EF94BBEE94BC
:106866000050037F2822C3EF94BCEE9400400CD363
:10687600EF94E2EE940050037F2622C3EF94E3EEFA
:106886009400400CD3EF94ECEE940050037F252245
:10689600C3EF94EDEE9400400CD3EF94FBEE94001E
:1068A60050037F2222C3EF94FCEE9400400CD3EFFA
:1068B6009438EE940150037F1922C3EF9439EE9475
:1068C60001400CD3EF9490EE940150037F2122C334
:1068D600EF9491EE9401400CD3EF94AEEE940150F8
:1068E600037F2822BE0106BFAF037F3C22BE0106FE
:1068F600BFB0037F3C22BE0106BFB1037F3C22BE70
:0B6906000106BFB2037F3C227F3C2251
:107D7D0090005A7401F0A374C9F0123502127CF10F
:017D8D0022D3
:10787C00900058EEF0A3EFF0123502900123EBF0DC
:10788C00A3EAF0A3E9F0900058E0FEA3E0FF125445
:10789C006D900058E0FEA3E0FF1267469000D6EF13
:1078AC00F0900058E0FEA3E0FF127D7D900127EEE2
:0578BC00F0A3EFF02233
:107B5900E4FDED25E0242EF582E43400F58374017B
:107B690093B50708E493B506037F00220DEDB4151C
:037B7900E17F01A8
:017B7C0022E6
:10691100EF8EF012505869AB000C69DB001669CF9D
:10692100002569C3002C699F003B6A4E00456A43FC
:1069310000486A59004D6987007969FF00896A0A30
:10694100009C6A2100AC6A2C00BB699300E2697B60
:1069510000EC69B700FB69F4013869E801906A1637
:1069610001AE696F01B26A3801BF00006A6590002B
:10697100AEE4F0A374E3F0026A739000AEE4F0A316
:10698100744EF0026A739000AEE4F0A374BCF0029E
:106991006A739000AEE4F0A3742DF0026A73900064
:1069A100AEE4F0A37403F0026A739000AEE4F0A3C6
:1069B10074EDF0026A739000AEE4F0A37426F00265
:1069C1006A739000AEE4F0A37417F0026A7390004A
:1069D100AEE4F0A3740DF0026A739000AE7401F09E
:1069E100A37439F0026A739000AEE4F0A374FCF072
:1069F100026A739000AEE4F0A3747AF080749000A0
:106A0100AEE4F0A3748AF080699000AE7401F0A343
:106A11007491F0805D9000AEE4F0A3749DF080521B
:106A21009000AEE4F0A374ADF080479000AE740125
:106A3100F0A374B3F0803B9000AEE4F0A37446F091
:106A410080309000AEE4F0A3743CF080259000AE5D
:106A5100E4F0A37449F0801A9000AE7401F0A374BD
:106A6100AFF0800E9000AFE004F070069000AEE051
:106A710004F09000AEE0FEA3E0FF12787C900123C9
:106A8100E0FBA3E0FAA3E0F990012FE0FEA3E0FF11
:106A9100E92FF9EA3EFA900001124E5775F007A46A
:106AA100FD900123A3E0FAA3E0F98F828E83124EB9
:106AB100572D24F890012EF0D2B2E0FF2431F58257
:106AC100E43401F583E0F58D74B02FF582E43400F0
:066AD100F583E0F58B22C5
:107B3400E4900126F090012D04F0E4900129F0A3D3
:107B4400F090012FF0A3F09000AEE0FEA3E0FF124E
:057B54006911D28E2230
:03000B000270E39D
:1070E300C0E0C0F0C083C082C0D075D000C000C073
:1070F30001C002C003C004C005C006C00790012B35
:10710300E0F58CA3E0F58A900126E060030271F4B8
:10711300900123E0FBA3E0FAA3E0F990012FE0FE46
:10712300A3E0FFE92FF9EA3EFA900002124E57FF5F
:107133009000D6E08FF0A424FFFFE5F034FFFEC3F8
:1071430090012AE09F900129E09E500FA3E004F0F4
:107153007006900129E004F0027209900129E4F01D
:10716300A3F0900130E02403F090012FE03400F00D
:10717300900123E0FBA3E0FAA3E0F990012FE0FEE6
:10718300A3E0FFF5828E83124E579001236028A35C
:10719300A3E02FF9EA3EFA900001124E5775F0076B
:1071A300A4FD900123A3E0FAA3E0F98F828E83125A
:1071B3004E572D24F88034E0FBA3E0FAA3E0F990C6
:1071C300012FE0FEA3E0FFE92FF9EA3EFA90000168
:1071D300124E5775F007A4FD900123A3E0FAA3E034
:1071E300F98F828E83124E572D24F590012EF08055
:1071F300159000AEE0FEA3E0FF127B5990012DEF46
:10720300F06003127B34D007D006D005D004D0033E
:10721300D002D001D000D0D0D082D083D0F0D0E043
:017223003238
:03001B000272244A
:10722400C0E0C083C082C0D075D000C000C001C01F
:1072340002C003C004C005C006C007900127E0FED9
:10724400A3E0FF90012FE0FCA3E0FDC39FEC9E5060
:107254005390012EE0FF30B21624D7F582E43400B7
:10726400F583E0F58D74FD2FF582E4340080142459
:1072740031F582E43401F583E0F58D74B02FF582A5
:10728400E43400F583E0F58B900123E0FBA3E0FAFE
:10729400A3E0F98D828C83124E576004B2B2801D34
:1072A400D2B28019C28ED2B29001267401F090013C
:1072B40029E4F0A3F0A3E0F58CA3E0F58AD007D08D
:1072C40006D005D004D003D002D001D000D0D0D055
:0672D40082D083D0E032FD
:107D0900D2BDE4F5C875CBFF75CAEC85CBCD85CA64
:047D1900CCD2AD22F9
:107B9F00EF24FF92B59297928792A2928392B69218
:107BAF00A6928192909292928592A492A192B19272
:027BBF0094220E
:107BC100EF24FF92B49296928692A3928292B792F8
:107BD100A7928092919293928492A5929592B0925B
:027BE100A022E0
:0C7C2400EEF0A3EFF0A3EDF0F45401FF2C
:107C3000EF24FF92B592B492979296928792869291
:047C4000A292A32247
:0C794700EEF0A3EFF0A3EDF0F45401FF0C
:10795300EF24FF9283928292B692B792A692A79255
:107963008192809290929192929293929492A09209
:10797300B192B092A1929592A492A59285928422FB
:0C7D1D00EEF0A3EFF0EDA3F0F45401FF32
:087D2900AE07127C3002795311
:076E3700E0FEA3E0FFE4FD13
:106E3E00900009127D1DE024FF9293900009E0FE60
:106E4E00A3E0FF127C8290000BE024FF92949292BA
:106E5E00900009E0FEA3E0FF127C8290000BE0247C
:106E6E00FF92A09291900009E0FEA3E0FF127C82B7
:106E7E0090000BE024FF92B19290900009E0FEA3E7
:106E8E00E0FF127C8290000BE024FF92B092809083
:106E9E000009E0FEA3E0FF127C8290000BE024FFCD
:106EAE0092A19281900009E0FEA3E0FF127C8290F5
:106EBE00000BE024FF929592A7900009E0FEA3E05C
:106ECE00FF127C8290000BE024FF92A492A6900009
:106EDE0009E0FEA3E0FF127C8290000BE024FF92FB
:106EEE00A592B7900009E0FEA3E0FF127C8290000D
:106EFE000BE024FF928592B6900009E0FEA3E0FF1E
:106F0E00127C8290000BE024FF9284928290000902
:106F1E00E0FEA3E0FF127C8290000BE024FF928340
:106F2E00900009E0FEA3E0FF127C8290000BE024AB
:106F3E00FF92A39296900009E0FEA3E0FF127C82DE
:106F4E0090000BE024FF92A29297900009E0FEA31E
:106F5E00E0FF127C8290000BE024FF928692B490A8
:106F6E000009E0FEA3E0FF127C8290000BE024FFFC
:0F6F7E00928792B5900009E0FEA3E0FF027C82AB
:076F8D00E0FEA3E0FFE4FDBC
:106F9400900009127D1DE024FF92B59287900009AC
:106FA400E0FEA3E0FF127C8290000BE024FF92B489
:106FB4009286900009E0FEA3E0FF127C8290000B11
:106FC400E024FF929792A2900009E0FEA3E0FF1252
:106FD4007C8290000BE024FF929692A3900009E03B
:106FE400FEA3E0FF127C8290000BE024FF928390CA
:106FF4000009E0FEA3E0FF127C8290000BE024FF76
:1070040092829284900009E0FEA3E0FF127C8290B9
:10701400000BE024FF92B69285900009E0FEA3E005
:10702400FF127C8290000BE024FF92B792A590009F
:1070340009E0FEA3E0FF127C8290000BE024FF92A3
:10704400A692A4900009E0FEA3E0FF127C829000C7
:107054000BE024FF92A79295900009E0FEA3E0FFC5
:10706400127C8290000BE024FF928192A19000098F
:10707400E0FEA3E0FF127C8290000BE024FF9280EC
:1070840092B0900009E0FEA3E0FF127C8290000B16
:10709400E024FF929092B1900009E0FEA3E0FF1279
:1070A4007C8290000BE024FF929192A0900009E072
:1070B400FEA3E0FF127C8290000BE024FF929292E8
:1070C40094900009E0FEA3E0FF127C8290000BE0A4
:0F70D40024FF9293900009E0FEA3E0FF027C826C
:1063AA00900006127D1DE024FF92B59287900006A8
:1063BA00E0FEA3E0FF127C82900008E0FFF4139253
:1063CA00B59287EF24FF92B49286900006E0FEA36E
:1063DA00E0FF127C82900008E0FFF41392B49286E8
:1063EA00EF24FF929792A2900006E0FEA3E0FF122C
:1063FA007C82900008E0FFF413929792A2EF24FFA8
:10640A00929692A3900006E0FEA3E0FF127C82908F
:10641A000008E0FFF413929692A3EF24FF92839070
:10642A000006E0FEA3E0FF127C82900008E0FFF481
:10643A00139283EF24FF92829284900006E0FEA3D7
:10644A00E0FF127C82900008E0FFF41392829284AB
:10645A00EF24FF92B69285900006E0FEA3E0FF12B9
:10646A007C82900008E0FFF41392B69285EF24FF35
:10647A0092B792A5900006E0FEA3E0FF127C8290FC
:10648A000008E0FFF41392B792A5EF24FF92A692B8
:10649A00A4900006E0FEA3E0FF127C82900008E0D0
:1064AA00FFF41392A692A4EF24FF92A7929590006C
:1064BA0006E0FEA3E0FF127C82900008E0FFF413DE
:1064CA0092A79295EF24FF928192A1900006E0FE96
:1064DA00A3E0FF127C82900008E0FFF413928192FD
:1064EA00A1EF24FF928092B0900006E0FEA3E0FFA5
:1064FA00127C82900008E0FFF413928092B0EF249D
:10650A00FF929092B1900006E0FEA3E0FF127C8217
:10651A00900008E0FFF413929092B1EF24FF929159
:10652A0092A0900006E0FEA3E0FF127C8290000891
:10653A00E0FFF413929192A0EF24FF92929294902A
:10654A000006E0FEA3E0FF127C82900008E0FFF460
:10655A001392929294EF24FF9293900006E0FEA386
:0E656A00E0FF127C82900008E0F4139293226E
:10657800900006127D1DE024FF9293900006E0FE35
:10658800A3E0FF127C82900008E0FFF4139293EFDF
:1065980024FF92929294900006E0FEA3E0FF127C02
:1065A80082900008E0FFF41392929294EF24FF92F5
:1065B8009192A0900006E0FEA3E0FF127C8290007A
:1065C80008E0FFF413929192A0EF24FF929092B109
:1065D800900006E0FEA3E0FF127C82900008E0FF36
:1065E800F413929092B1EF24FF928092B09000063B
:1065F800E0FEA3E0FF127C82900008E0FFF4139213
:106608008092B0EF24FF928192A1900006E0FEA351
:10661800E0FF127C82900008E0FFF413928192A1BF
:10662800EF24FF92A79295900006E0FEA3E0FF12E8
:106638007C82900008E0FFF41392A79295EF24FF64
:1066480092A692A4900006E0FEA3E0FF127C82903E
:106658000008E0FFF41392A692A4EF24FF92B792E9
:10666800A5900006E0FEA3E0FF127C82900008E0FF
:10667800FFF41392B792A5EF24FF92B6928590008B
:1066880006E0FEA3E0FF127C82900008E0FFF4130E
:1066980092B69285EF24FF92829284900006E0FEE3
:1066A800A3E0FF127C82900008E0FFF4139282922C
:1066B80084EF24FF9283900006E0FEA3E0FF127CA3
:1066C80082900008E0FFF4139283EF24FF929692E1
:1066D800A3900006E0FEA3E0FF127C82900008E091
:1066E800FFF413929692A3EF24FF929792A2900040
:1066F80006E0FEA3E0FF127C82900008E0FFF4139E
:10670800929792A2EF24FF92B49286900006E0FE40
:10671800A3E0FF127C82900008E0FFF41392B49289
:1067280086EF24FF92B59287900006E0FEA3E0FF73
:0E673800127C82900008E0F41392B592872242
:0F480800900006EEF0A3EFF0A3ECF0A3EDF0EBC1
:10481700127D23E4A3F090000BE0FFC39402400352
:10482700024C7890000AE0FE24FF92839293EF7087
:1048370007EE24FF92B5800F90000BE0B4010890BB
:10484700000AE024FF92A3900006E0FEA3E0FF1217
:104857007C8290000AE0F4FF1392839293A3E0FE18
:104867007006EF1392B5800CEEB4010890000AE0D1
:10487700F41392A3900008E0FEA3E0FF127C82905D
:10488700000AE0FF24FF92829294A3E0FE7007EFF4
:1048970024FF92B4800CEEB4010890000AE024FFD4
