:0300000002741374
:0C741300787FE4F6D8FD75810702745AFA
:1077A90075FFDE75FFAD1200037FAF7E0112787F92
:1077B90012000ED2AFD28CD28EAF8A7E0012779A87
:1077C9001276AD12775C7C007D2B124EEE90000094
:1077D900ECF0A3EDF0FF125E5E90012DE070E47D08
:0A77E90002FF12613B127B3780D9CA
:107B800043B28775B167E4FFFE0FBF00010EE4B595
:107B900007F7EEB401F3E5B130E7FB43B20853B2A7
:017BA000FBE9
:017BA10022C1
:107BE600E4F5E1F5E275E34075A4FF75A5FF75A61A
:107BF600FF75A7FF7580FF7590FF75A0FF75B0FF35
:017C0600225B
:09000E00E4F58E127986027D0CE6
:06000300127B80027BE687
:107C8500D3EF9400EE940040147DB87C0BED1D708D
:0D7C9500011CED4C70F7EF1F70E61E80E340
:017CA20022BF
:10002E0000EC00FB0138019001AE01B201BF000CE3
:10003E0000160025002C003B00480045004D0079BD
:10004E000089009C00AC00BB00E20083008B009393
:10005E00009C00A50091008700C400D000DC00E9E0
:10006E0000F70106011501260137014A015D0172F3
:10007E000188019F01B801D201EE020B0220024B52
:10008E00026E029302BA02E40310033F037003A44C
:10009E0003DC04160455049704DD0526057505C812
:1000AE000620067D06E0074907B8080408AA092EAF
:1000BE0009BA0A4C0AEA0B900C400CFA0DC00E92CB
:1000CE000F70050101050101060102050102010281
:1000DE0002070104050101050101060102050102E5
:1000EE0002020201020405010105010105020203DB
:1000FE0002020102020701020601020402010402C9
:10010E0001030202010202020202010208FF0502BD
:10011E00020602020001080602030502010602049D
:10012E0000010C0103040602040302010202010194
:10013E00020200010206010204010206010201028E
:10014E00020402020001020102020103020602027F
:10015E000702010602010502031D01010302121925
:10016E000102070102030202070202010304060252
:10017E00040302010202010102020001020601044F
:10018E000102021E0102010304050202010302061E
:10019E0002021F0104070209010301020312FF06F6
:1001AE00010107010101020106010107010101021E
:1001BE00010202010701010601011A0101070101F5
:1001CE000102010102010202011C010103020107E9
:1001DE00020C00010406010203020A0202020302DB
:1001EE0002000110060102020206030202020202CE
:1001FE0001020202020200010401020202020203D3
:10020E000206070106010204060118060102030296
:10021E001202020203020200010806010202020A91
:10022E00000104020206060106050104060110057E
:10023E000202060202000106030202050202060283
:10024E000202020601020805010201020202020672
:10025E000302020202020001060202040302020469
:10026E000208020202030202040202030202040254
:10027E00020302010202050001020202040302024D
:10028E00040208020202010202070102050208012D
:10029E00020206020605020206020404020205021A
:1002AE000206020605021AFF0602070302010502F4
:1002BE0002060202030202050202060204050202FF
:1002CE0003020205020206020200010406020703EF
:1002DE0002010502020602020302020502020602E2
:1002EE0002050204030202020202050204020202D5
:1002FE000302100402100601080402080402080397
:10030E0002020402020502020202080302020402B1
:10031E0003030201020204050208FF0602040202A0
:10032E0004030210FF050204030202060212FF017B
:10033E00031006021007020603020A01031006024A
:10034E0010070210020310070210FF010304060239
:10035E00040302010202010102020001020601036E
:10036E00070101010201060101070101010201025B
:10037E00020107010102020103020104020105024A
:10038E000103020104020105020107020106020433
:10039E00000102060202000108FF03030605020225
:1003AE0003030802030C05020401031005020C06E8
:1003BE0002020702020103060702020702020602F8
:1003CE00040502120602021F0106060204060204BA
:1003DE0005021603020401020204020A03020CFFC4
:1003EE0004020403020603020203020204020205CF
:1003FE0002020502020502040202020202040502C2
:10040E0002050202040202040204000102040202B6
:10041E0004020205020204020204020203020203A3
:10042E000202030208010204060206060202060286
:10043E00020502020402020502020502040502027E
:10044E000102040202020302020402020402080470
:10045E000203050201050202040202030204020263
:10046E00080402040302060302020302020402024B
:10047E00050202050202050204020202020204053E
:10048E000202050202040204040204000102040234
:10049E000204020205020204020204020203020224
:1004AE000302020302080102020602060602020607
:1004BE0002020502020402020502020502020602FF
:1004CE0002070202010304020302030302040302F1
:1004DE0004030400010204030204030203030401E3
:1004EE000302020310FF00010405020404030403C7
:1004FE0003020303020303020502020001020502C6
:10050E0002050202030202050202020302020302B4
:10051E0001030404030204030203030203030203A0
:10052E00030203030405020205020403020205028C
:10053E000202030202030201030401030201030289
:10054E000502040602020602040001020602020669
:10055E000202070202010302020302020302050263
:10056E000202030201030401030202030203030257
:10057E000303040203020203020001020103040347
:10058E00030203030204030203030202030604032D
:10059E00040303040502020502040302020502021B
:1005AE000203020203020103040403020403040310
:1005BE0003020303020303040502020502040302FD
:1005CE0002050202020302020302010302010302F8
:1005DE0001030201030405020206020206020600DE
:1005EE0001020602020602020702020103020203D0
:1005FE0002020302050202040302040302030304BF
:10060E00030302FF02030406020C000108010304A7
:10061E00070204010310000108050202010304058C
:10062E00030205031003030401030405020801037A
:10063E000102030102030602030801031002030470
:10064E000502020602040702020702040702041E44
:10065E00010206020407020A010302010306070251
:10066E0004060220FF02030406020401030207022D
:10067E000401030201030C0103020103020203043D
:10068E000203020203020203080103040103020231
:10069E000304030302030310010302070202010312
:1006AE000401030201030A0203040203020203020D
:1006BE0002030301030101030205030403031AFFEE
:1006CE0006020207020201030405020205020600E9
:1006DE0001020103020203040502080203020303DE
:1006EE0002040304040302030304020302020302CE
:1006FE0003030202030201030607020401030206BA
:10070E000222000103060201030303020301020396
:10071E0002010302030308000102020302030302A3
:10072E00040312FF02030406021C01030807020859
:10073E00010320FF06020305020206020103020660
:10074E000602020502010602010502010202010370
:10075E00020601030106020305020106020105025B
:10076E00010302030502010302010602060302064B
:10077E00FF05020206020203020500010303020145
:10078E00020201030201020201010205000103053A
:10079E000102060101050201030205000102030226
:1007AE000105020202020101020106010500010615
:1007BE0006020305020206020103020606020205F4
:1007CE0002010602010502010202010302060202F3
:1007DE0002010201020202010201020202010201F1
:1007EE0002020203020102020201020102020201DE
:1007FE0002010302020001010502020602010302C8
:10080E0001020201030204000103FF0302010202BE
:10081E0001030201020201010205000103050102AA
:10082E000601010502010302050001020302010592
:10083E00020103020102020101020106010500018B
:10084E000606020305020106020103020606020263
:10085E00050201060201050201020201030206025F
:10086E00020201020102020201020102020201025F
:10087E00010202020302010202020102010202024D
:10088E00030201060202000104FF01030106020336
:10089E000502010602010502010302030202010321
:1008AE000201050202030201020202050201030215
:1008BE00020202010302020001010103010602030A
:1008CE0005020106020105020103020302020103F1
:1008DE000201050202030201020202050201FF06E5
:1008EE0002020502010602020001040601020102D3
:1008FE0001030201020205000103030202050201C7
:10090E00070201060205060202050202070202069E
:10091E00020E060203050202060201030201030390
:10092E00050602020502010602010502010202018C
:10093E000302010601050103010602030502010679
:10094E000201050201030203050201030201060270
:10095E00060502030502020602010302010202015C
:10096E00030204FF0602020502010602020502014D
:10097E00060203000103FF0602020502010602023F
:10098E000502010602020502010602020502010627
:10099E000202000104FF0502060302020202020324
:1009AE0002020502020602020601100202060302FC
:1009BE0002040204030202020202030210050206EE
:1009CE0003020202020203020205020206020206EC
:1009DE0001060202060302020402040302020202DC
:1009EE0002010210000104FF0102010102010102D5
:1009FE0002030202020202020201020201010201CC
:100A0E0001020201020102020202020201020106B9
:100A1E00010106010206010800010207010107019A
:100A2E000107010201020102020102020207010294
:100A3E0006010105010203010103010800010A0379
:100A4E00020102020103020203020102020102027A
:100A5E000202020101020101020402020206010267
:100A6E000601010601010202010102010102040058
:100A7E00010607010107010107010201020102023D
:100A8E00010202040601010501030301040001082D
:100A9E000502030202010202020302020502030220
:100AAE00020102020201020206010800010802020E
:100ABE000306010106010203020202020301020102
:100ACE0001020406010205010800010805020302E5
:100ADE0002010202020302020502030202010202E5
:100AEE0002010202060108000108020203060101CA
:100AFE0006010203020202020301020101020201C7
:100B0E00020102020102020800010AFF01020101B4
:100B1E0002010102020501010102010102020502A8
:100B2E000204020203020202020301020101020890
:100B3E000001010102010302010502010602020584
:100B4E000201060201060201050203060202050267
:100B5E0001030201FF03020102020203020103026A
:100B6E000800010AFF010201010201010202050152
:100B7E000101020101020205020204020203020245
:100B8E000202030102010102080001010102010338
:100B9E000201050201060202050201060201060219
:100BAE0001050203060202050202030201050213F9
:100BBE00FF050208000108FF0502060302020202F9
:100BCE0002030202050202060202060110020206DA
:100BDE0003020204020403020104020103020102E1
:100BEE00020102020103020303020C0502060302C4
:100BFE0002020202030202050202060202010308B9
:100C0E0006020802020603020204020403020104A1
:100C1E0002010302010202010202010302030302A6
:100C2E000CFF030201050203030210FF050201007F
:100C3E00010201020101020101020203020202028B
:100C4E00020202010202010102010102020102017D
:100C5E000202020202020202010102020601010662
:100C6E000108FF050202030202010102050102054D
:100C7E000202020202010102020202050202010246
:100C8E00020102080102020302020502020103022E
:100C9E000401020102020502020102020301020620
:100CAE000102010202050202050202020202020212
:100CBE0004030204040204050208060204070204E7
:100CCE0007020401030402030403030403030403E1
:100CDE000302010302010308050208000108FF05D3
:100CEE0002020302020302040502020202020202CF
:100CFE000403020202020202020201020A000101C0
:100D0E0001020207010206010207010201020207A7
:100D1E00010201020201020202020203020E050298
:100D2E00020302020302040502020202020202048C
:100D3E000302020202020202020102020102080082
:100D4E000101010202070102060102070102070169
:100D5E000201020201020202020201020800010265
:100D6E000502020602020702020103040702020143
:100D7E000302070202060202060202050201040233
:100D8E00010502040701020502010102040202022A
:100D9E00030202040202030202020202010202071D
:100DAE000102000102FF0502020302020302040512
:100DBE00020202020603020202020401020A0001FA
:100DCE0001010202070102060102070102010202ED
:100DDE0007010207010201020201020202020203DE
:100DEE00020C0502020302060502020203020203BE
:100DFE000401030207020207020201030A000101B5
:100E0E0001020207010206010207010201020207A6
:100E1E0001020701020102020102020202020102A4
:100E2E000800010205020206020207020201030483
:100E3E00070202010302070202060202050202066F
:100E4E000202060202050208010202020202030267
:100E5E00020402040302020402020502020102025B
:100E6E0002020203020A0001020502020602020742
:100E7E00020201030407020201030202030201033C
:100E8E000202030203030405020801020202020227
:100E9E00030202040204030202040202030202021B
:100EAE000202020202010202FF07010201020A000F
:100EBE0001020502020303020203020502020303FA
:100ECE0002020306050302030302020302050202E5
:100EDE0003030202030402030205030203030202D8
:100EEE0003020602020303020203040203020502C6
:100EFE0002030302020302030302060202020308B4
:100F0E00000102FF030202060202070202010302AF
:100F1E00070201060201070203060201050204028E
:100F2E000201030204050208000102040202030288
:100F3E000204020205020207020402030201031068
:100F4E00000101FF07010201020201020400010279
:100F5E000502020602020702020103040702020151
:100F6E000302020202010302070202060204050244
:100F7E00060001020102020202020302020402043E
:100F8E00030202040202050202010202010202062B
:100F9E000204050206000102050202060202070211
:100FAE00020103040702020103020203020103020B
:100FBE0002030203030203030205020600010201FB
:100FCE0002020202020302020402040302020402EB
:100FDE0002050202010206020201030201020201DF
:100FEE0001020D00010A05020206020207020201B9
:100FFE0003040702020103020702020602020502AF
:10100E000204020204020205020E0402020302029C
:10101E00020202010202070208010310FF0302028C
:10102E00030204020202010202020204030202058A
:10103E000202050208020204020202050102020275
:10104E000403020202021201020206010206010458
:10105E00060104060102010202060206050202054D
:10106E000204010204010210020210000104FF0238
:10107E00020203020A020202010202050203030235
:10108E000902020203020202020A03020202020320
:10109E00010203060102060108000108010206060C
:1010AE00010202020201020405010201020606010A
:1010BE000202020201020A020204020202030204F6
:1010CE0002020A00010802020203020603020605DA
:1010DE0002020502060302020202020302020202D9
:1010EE0002030202020204020202030202020202CE
:1010FE0001020406010206010800010801020606AB
:10110E0001020102020202040501010501010102B0
:10111E000606010202020201020602020602020293
:10112E0002020403020402020E0502020602020675
:10113E00020205020405020205020606020401036C
:10114E000406020205020206020205020201020262
:10115E0002020802020203020202020206010A0051
:10116E000108010206060102010202020204050143
:10117E000201020606010202020201020606020333
:10118E000602030602020602040302020602020619
:10119E00020205021E000110FF05020203020202F6
:1011AE00020203020203020205020203020203020A
:1011BE0012020203020203030202020203060103E9
:1011CE0002021201020801020206010401020201DA
:1011DE0002080202020102020102020102020602DA
:1011EE0002050206FF050206030202FF06020405BF
:1011FE0002040502060502020602020502020602AA
:10120E00020502020602060502020502020302029E
:10121E000502020302020502040502040602080585
:10122E000202060202050202030210030202020279
:10123E00020102020202020102020202020602047C
:10124E00010202010202070102010202070102016C
:10125E000202060206FF010308070202010302074B
:10126E00020206021A000110050102010202020228
:10127E00020302040402060202010302010202102A
:10128E0000011005021801030806020605020205F8
:10129E000210000108FF010304010304070202010A
:1012AE0003020702020602020602020702020602F9
:1012BE0014000108020304010304070202060206D9
:1012CE0000010207020101030102030201030206EB
:1012DE0002080001080502030203030702030103CB
:1012EE0008070204010304030304020304010304B8
:1012FE0005020206020206020202020201020202B6
:10130E0002020302020202020102020601020001AF
:10131E000406020206020205020406020402030487
:10132E00FF050206010302FF010308070202010383
:10133E00020702020602020602020702020602105B
:10134E0000010C0302020202020102020202020169
:10135E000202020202060204010204070102010255
:10136E000207010201020206020C00010801030835
:10137E000702020103020702020602020602080524
:10138E000201060228FF0602040303030203010200
:10139E00030401030206020205020401030406020D
:1013AE0008060204020304010304060202050202F7
:1013BE0002020405020206020205020203020603ED
:1013CE0002040602030502010602040602020502D9
:1013DE0002060204020303010301020308010303D0
:1013EE0001030101030202030203030203030202CB
:1013FE0003020103020502040103020602020602B1
:10140E0008000104FF0602030602010103020103A4
:10141E000206020600010106020205020203020292
:10142E00050202010302060208060202010306017A
:10143E00030206020205020406020205020202026D
:10144E000205020203020600010203020203020267
:10145E000202020102020302020202060302020655
:10146E000202050202030202060202050208000140
:10147E000206020201030201030306020102030631
:10148E000103020602040502020103020602100015
:10149E000101FF0602040303020203020203040118
:1014AE0003020602020502040103040602080001FB
:1014BE0001060204020304010304060202050202ED
:1014CE0002020405020206020203020405020103DF
:1014DE0002040302040602020502020602040602C8
:1014EE0002050202060204020302010302020308BD
:1014FE0000010101030301030101030202030203C0
:10150E000304020302010302FF05020401030206A3
:10151E000202060218000101060201050201030281
:10152E00020202040202010102010202010302018F
:10153E000502020502020502010202010302010573
:10154E00020106020406020103020105020106025F
:10155E00010103040103010602010103010203015B
:10156E000303040001040103010203010303040049
:10157E000104FF050204010302060202060208002E
:10158E000102FF050204010302060202060208021E
:10159E0003100303100602200001040503020001DC
:1015AE0001050302060208000108FF0602080502F3
:1015BE0002060201070201060202050202060204E9
:1015CE0003020400010806020805020206020107D2
:1015DE0002010602020502020602040302040001D1
:1015EE0008030201050201060201070201060202BA
:1015FE000302020502021D0102030202020202019F
:10160E0002020202020601020102020202020502A7
:10161E000203020202020203020106020107020194
:10162E00020301010302070202060204030202057D
:10163E00020206020406020400010206020203026E
:10164E000102020103020105020106022006020840
:10165E000602060602020502020602020702020640
:10166E000202030204050202060202070208070232
:10167E00020302060602100702080702060702020C
:10168E000602060702020202041B01020202020304
:10169E0002040302040302020702060302100302FD
:1016AE0003050201060202070202060204060204F4
:1016BE0003020205020206020207020202020202EF
:1016CE0002021B01020202020302040302040302CD
:1016DE0002060206030206020202010205000104CE
:1016EE0005020C03020205020205020306020101B5
:1016FE00020402020607010206011C000104060292
:10170E002001030601030201030402030207020281
:10171E000602040702020602020302080302020383
:10172E00020402030202030401030207020206027C
:10173E00040702020602020302080502060502025F
:10174E000602080601060302020202040102020258
:10175E000202030204060204070224070104020324
:10176E000403020207020406020205020206022018
:10177E00000104FF01030601030201030407020432
:10178E000602040702020602020602080302020310
:10179E00020402030202030401030207020206020C
:1017AE0004070202060202060208010306010302F2
:1017BE0001030402030207020206020407020206E4
:1017CE0002020602080302020302040203020203DB
:1017DE0004010302070202060204070202060202C5
:1017EE0003020805020806020806010603020202A9
:1017FE0002040102020202020302040602040702AC
:10180E000807021C07020402030C03020407020469
:10181E00000104070204060228000108FF03020467
:10182E000702080702020602020602180302080354
:10183E000310020302030308020302030308030357
:10184E0018030208070208FF060214070204050225
:10185E000403020202020203021806020403030436
:10186E000203140303040103040602020502020626
:10187E000220030208050202060202070202060205
:10188E000206021007020406020207020205020205
:10189E0003020402020203021000010103020C05FE
:1018AE0002040602020702020502020302020202FB
:1018BE0008030204020202030202010202060104EC
:1018CE0005010206011000010106010802020802CC
:1018DE00020203020406010C0602060702020502BA
:1018EE0002030202030202020202030210000104BA
:1018FE00020208030204050208050204030204069C
:10190E0002040302020202020102060202020302A2
:10191E000402020203020201020206010405010290
:10192E000601080601020102020202020302020679
:10193E000212030204070202060202060210050248
:10194E000206020405020203020803020605020251
:10195E000602030702010502020202020302180038
:10196E00010103020407020206020206021005022A
:10197E000406020205020203020803020605020221
:10198E000602020702020502020202020302180008
:10199E00010106010403020202020202021000010A
:1019AE000102020201020201020202020203020805
:1019BE00020202010204050102FF060118030204DD
:1019CE00070204FF060118060104030202020202C6
:1019DE0002021000010102020401020802020403C5
:1019EE0002100502060302020502020602020103AC
:1019FE00020203020303100303040503040203049B
:101A0E00010304050210060248000128FF05020228
:101A1E00010202FF050202010202000102FF05029D
:101A2E000A03020202020801020203020402020475
:101A3E0000010205020A0302020202080102020765
:101A4E000102010206000102010206050204030260
:101A5E000202020801020203020402020400010251
:101A6E000102060502040302020202020102040040
:101A7E00010E05020A03020202020801020203021B
:101A8E000402020400010205020A03020202020815
:101A9E00010202070102010206000102010206050F
:101AAE0002040302020202080102020302040202FD
:101ABE0002010202000102010206050204030202F3
:101ACE00020202FF020202010206000108FF0102E9
:101ADE0002050202030208050202030202010202CB
:101AEE0005020202020803020202020201020205BC
:101AFE0002020302080502020302020202020102AE
:101B0E000600010801020205020203020805020294
:101B1E00030202010202050202020208030202028D
:101B2E00020201020205020203020805020203027A
:101B3E0002020202010206000102FF050102010279
:101B4E0002020202FF03020C05020203020202025B
:101B5E000800010205010201020202020203020C48
:101B6E000202020102040601060001020501020141
:101B7E00020202020203020C050202030202FF022B
:101B8E000204000202020204030202020202010225
:101B9E001007010201020A02020601021400010CE2
:101BAE00FF02020400020202020403020202020207
:101BBE0001021007010201020A02020601020205D9
:101BCE0002020302080502020302020102020502DA
:101BDE0002020208030202020202010202050202CE
:101BEE0003020605020203020202020201020600BD
:101BFE0001080102020502020302080502020302A5
:101C0E00020102020502020202080302020202029D
:101C1E000102020502020302080502020302020289
:101C2E000202010206000108FF0202040002020283
:101C3E00020403020402020201021000010A05015D
:101C4E0002010202020202FF02020400020202026A
:101C5E00040302020202020102100701020102083D
:101C6E00000108FF0202020102080202040302013F
:101C7E00020201010210FF0501010102010202012F
:101C8E00030208020208050208000103050101070C
:101C9E0001010102010202080701080502100001FC
:101CAE0008060208050208030208020208030208D9
:101CBE0005021000010205020603020205020403DA
:101CCE00020405020C0203040103060302020302CE
:101CDE0004060204050210060206050202060208A8
:101CEE0005020801020403020402020601020206B2
:101CFE000104030204020210050206030202050299
:101D0E000403020405020C0203040103060203028B
:101D1E0003030403020405020C0602040103060673
:101D2E000202050204060204020304010304050272
:101D3E00040602040303060203020103040602085A
:101D4E0001030CFF0502060302020502040302044E
:101D5E0005020C0203040103060302020302040639
:101D6E000204050210060206050202FF060208051D
:101D7E000208FF0102040302040202060102020627
:101D8E000104030204020208020204030204050213
:101D9E000603020205020403020405020C020304F8
:101DAE0001030602030203030401030407020801F0
:101DBE0003040702040602060502020103040602DA
:101DCE0004050208010304070204060206050202C6
:101DDE0006020401030402030803030202030201C4
:101DEE000302020302FF03030602030201030405BA
:101DFE0003040203080303020203020103020203A7
:101E0E000201030607020206020403030407020886
:101E1E000103060702020602060502020603080572
:101E2E00030803030405030404030603030201036A
:101E3E000406020402030803030202030201030262
:101E4E000203020303060203020103040503040254
:101E5E000308030302020302010302020302010349
:101E6E000607020206020401030405030403030A23
:101E7E000203020103040602040303060203020125
:101E8E000304050204000104060202070202010314
:101E9E0004060204010302030306050304030304FC
:101EAE00010304060204FF01031800010401030CE0
:101EBE0003020205020207020C03020207020206D7
:101ECE00020D0102010402010103010103080202D5
:101EDE0002030202050202060202010306060202C4
:101EEE0001030405030403030402030401030206B1
:101EFE000206010320FF060204010304050208FF87
:101F0E0001031800010403020C0502040202100171
:101F1E00030C01030407020805020806020C010364
:101F2E00040502080302040102040202060302026F
:101F3E000302040402040502080303020203020161
:101F4E000302020302FF010318FF0303020203024E
:101F5E00010302020302FF0103180001040602023C
:101F6E00070202010304060204010302030306052D
:101F7E000304030304000108010304060204010321
:101F8E0018000108020208070108050210000108E6
:101F9E0006020805020803020802020803020805E9
:101FAE000210010220000120FF05010201020202BF
:101FBE0002060302040202040302040202020302E6
:101FCE0002050202030202010208020204030204D5
:101FDE0002020203020205020203020201021002C1
:101FEE0002020302060202020302060202040302B6
:101FFE000401020C060104020202030201020201A4
:10200E0001020202020201020800010205010201A0
:10201E000202020202FF020202030206020202038F
:10202E00020602020203020205020203020201027A
:10203E000401020205010206010603020202020465
:10204E00010202020202030208000102050102015E
:10205E000202020204030206020202030206020246
:10206E000203020205020203020201020607010236
:10207E00060106030202020204010202020202012A
:10208E00020C01020207010206010401020402020F
:10209E00040102020202020302020502020202020D
:1020AE0003020201020401020207010206010401F9
:1020BE0002040202020302010202010102020202F2
:1020CE0002030208000104010202070102060104D4
:1020DE0001020402020203020102020101020202D3
:1020EE0002020302020502040302020602040302B4
:1020FE0002020202010206030202020202030201AE
:10210E00020201010202020202010208000102FFA4
:10211E000102020302020402020502040302020487
:10212E000202050204060202070202010302030272
:10213E000404020205020806020405020204020259
:10214E000502020103060602060702020103040746
:10215E00020405020403020204020205020406023E
:10216E000207020201030407020206020205020828
:10217E000402020502020602020402020502020124
:10218E000308070202050202010202030204020210
:10219E0004020202010210000102FF010202050206
:1021AE0002030202050202FF0701020502020402F7
:1021BE0002050202070102050202040202050202E2
:1021CE00070102050201040201040202050202FFD8
:1021DE00070102040202040202030202FF070108C1
:1021EE00000102050102010202020202FF010202C7
:1021FE00030202040202050208060204050202049A
:10220E00020205020201030606020607020201038C
:10221E00040702040502040302020402020502047A
:10222E000602020702020103040702020602020569
:10223E00020804020205020206020204020205025C
:10224E000201030600011001030207020205020249
:10225E00010202030204020202010212010302073A
:10226E00020205020201020203020402020201023C
:10227E0012000110FF010102020102050102030119
:10228E0002FF010102020102010202020202030226
:10229E000402020203020204020403020204020206
:1022AE0005020201030207020201030206020400F4
:1022BE0001020602020502020103020702020103E5
:1022CE0002030308040304030304020308030208C1
:1022DE0004020403020202020201020C00010201C6
:1022EE000202020202FF03020402020203020204BD
:1022FE0002040302020402020502020103020702A3
:10230E000201030206020400010206020205020295
:10231E000103020702020103020502020302020187
:10232E000202030202040204030204020204010276
:10233E000202020203020402020203020204020467
:10234E000302020402020502020103020702020155
:10235E000302060204000102060202050202010344
:10236E000207020201030205020203020201020237
:10237E000402020302040202040102040103020722
:10238E00020206020404020402020807020201030A
:10239E0002070202060202050204030202050202FD
:1023AE0006020406020207020201030406020201EB
:1023BE000302010303070203070203010303FF02E3
:1023CE00030800010C010302020302FF03030402CF
:1023DE0003020103020702040602020702020103BE
:1023EE0004070202010302050204000102030202B5
:1023FE0004020201030404020201030402030201A7
:10240E00030203030602030601030202030203038F
:10241E00040203020103020702040602020702027B
:10242E00010304070202010302FF0502080402026F
:10243E00010304040202010304020302010302FF6A
:10244E000103080001060103010203010303020553
:10245E000302020302050302010301070201060241
:10246E00010702010103010203010303010103013C
:10247E00060212000102010201020201030202051C
:10248E000202020202050202010201010301070219
:10249E000106020107020101030102030103030108
:1024AE0006020C00010206020107020101030207E7
:1024BE0002020103020203020502040503040303E0
:1024CE0006050204040202030202040202050208C7
:1024DE0006020802020C010202020202FF020308B7
:1024EE00000104010302020302FF010308000104BC
:1024FE00010302020302FF050204000102030202AD
:10250E000402020103040402020103040203020195
:10251E00030A00010603030205020201030202037D
:10252E000205030203030401020202020203020473
:10253E000202020302020402040302020402020562
:10254E000202010302070202010302060204000155
:10255E000206020205020201030207020201030241
:10256E000502020302020102020402020302040235
:10257E000204010204000102050205010303070221
:10258E000301030305020303020301020304020312
:10259E00030205020205010209FF05010201020202
:1025AE0002020201020800010201020402020101FC
:1025BE0002090001020102040202020302020602E3
:1025CE0002070202010302000202060204050204CF
:1025DE0003020201020202020200010205010201CF
:1025EE0002020202010102090001020102050202B9
:1025FE0001030208000102050102010202020202A9
:10260E000302020602020702020103020001020691
:10261E000204050204060202030202020202000183
:10262E0002010306FF010302060202250102060350
:10263E000606030205030403030401030202030456
:10264E0001030606020225010226010225010425C8
:10265E000102060302000102050302030302050341
:10266E000202030401030207020201030206020230
:10267E0025010206030606030205030506030103F0
:10268E000302050302020304010302020302010313
:10269E0002070201010309010302020302FF030301
:1026AE0002020301010303070201010305FF0103F7
:1026BE000403020601020A03020607010A030206C8
:1026CE0001020A020208000102FF010302070202D0
:1026DE00FF01030400010AFF010306060201FF01C8
:1026EE00030403030601030A03030607020A030396
:1026FE000601030A010308FF01020205020203019B
:10270E00020102020502080202021D010201030279
:10271E000202020402080501020701040402020576
:10272E000102070108010202020201030201050271
:10273E000201020203020800010203020405020460
:10274E0001030407020406020203020206020A0043
:10275E000102060204070204030304070204050231
:10276E000203020205020A0001020302040502042A
:10277E00010304070204060202030202060208070E
:10278E0002020001021F01020702020303040203F8
:10279E0004010312000102FF0302040502040103F7
:1027AE000407020406020203020206020A000102E4
:1027BE0006020407020403030407020603020205CD
:1027CE000202FF050208000102FF030204050204D3
:1027DE00FF010304070202FF0702020103020302C4
:1027EE0002060202000102060202010302070202B1
:1027FE000001021F01020702020303040203040187
:10280E00030A030302020301010303070202060285
:10281E000A03030202030CFF020302010301FF0776
:10282E000203060202050206030202050202020369
:10283E00020103080103040502040102020302045B
:10284E0002020206020A0001020602090103030641
:10285E00020201030206020201030803030202033D
:10286E000C05020203030202030101030302030229
:10287E00FF03030205020202030203030200010228
:10288E000502020203020303030001020203040312
:10289E000301040303FF030302020302070202FF04
:1028AE00010302030202060202010302000102FFFB
:1028BE00030202060202070202000102FF070204DF
:1028CE0003030105030303030201030207020206C9
:1028DE0002020403060001020503020403020303BD
:1028EE0002050202030306000102040302030302AF
:1028FE00010302FF1D010202030600010202030290
:10290E000103020303020001020203020103020398
:10291E000304020302010304FF1D010202030E0061
:10292E000102030302010304030303020303010371
:10293E000A03020204020205020203030202030456
:10294E00030302060206000102070201010301024F
:10295E00030701030102030103030104030103033F
:10296E00010403010503010403010503010603012C
:10297E000503010403010603010703010603010712
:10298E0003012501012601012501010703010603AB
:10299E0001050304FF060204050204000102FF0103
:1029AE000304020302FF030302020301FF050302F5
:1029BE00020302010302FF030202010302070202E5
:1029CE00FF1D010202030A020302010312000102AB
:1029DE0003030201030403030302030301031202B0
:1029EE0002021D0102010302020202040208050195
:1029FE000207010204020205010206010407010496
:102A0E00010210FF0202020501020102020202028D
:102A1E000501020102020202020502020102020285
:102A2E00020206010202020205010405020203026D
:102A3E00040102010701010601060402020302025B
:102A4E00010204020202010206FF05010206010252
:102A5E000501040102020701060501020601020535
:102A6E00010402020201020605010205020203022E
:102A7E00040102020701020601040402020302021B
:102A8E00010204020202010206FF01020205020215
:102A9E000102020202020501020102020202020505
:102AAE0001020102020202020502020102020202F8
:102ABE0002060102020202050104050202010202DF
:102ACE0002020205010201020202020205010201D6
:102ADE0002020202020502020102020202020102C7
:102AEE0006FF0501020502020302040102010701AD
:102AFE00010601060402020302020102040202029E
:102B0E00010206FF01020205020201020202020296
:102B1E000501020102020202020501020102020285
:102B2E000202050202010202020202060102020272
:102B3E00020501040502020102020202020501025F
:102B4E000102020202020501020102020202020554
:102B5E000202010202020202010202050202010346
:102B6E0002000102FF010302020302030302020339
:102B7E000201030206020200010203030204030320
:102B8E00030301020308000104070202010302020B
:102B9E0003020702040502020001020702020203F9
:102BAE000301030903020804020C020204030206D5
:102BBE0001020A050208020204050104FF030206CF
:102BCE0002020203020201020602020601020202D0
:102BDE0002020502060102060601020102020601B8
:102BEE0002000102050102020206030202060102B0
:102BFE000501060402060302020402020102060295
:102C0E000206010202020202050206000110030280
:102C1E00020202040302020302040601040102047A
:102C2E00000116FF01020402020203020800010263
:102C3E00030202020202010202070104050204005D
:102C4E000102050202060202070202010304030248
:102C5E00040001020103020702020103020702043B
:102C6E000302020502080602020103020502020621
:102C7E00020400020206020205020204020205021A
:102C8E000203020402020201020400010206010113
:102C9E000102010302020202040102020202020503
:102CAE000204010204020204FF020202000112FFEA
:102CBE0001020402020203020402020203020200E3
:102CCE0001020302020202020102020502040302D1
:102CDE0002050202000102050202060202070202BA
:102CEE0001030A070202060202070202060202039B
:102CFE000204050208060202010302050202060290
:102D0E00040001020602020502020302020502028B
:102D1E000302040202020102040001020601010183
:102D2E000201030202020204010202020202010275
:102D3E0004060102FF01020400010A050101060159
:102D4E000101020400010103020104020105020156
:102D5E00060201070201010301020302210102031F
:102D6E000303020304060204050202000102050128
:102D7E000106010101020206010201020206010121
:102D8E000102020601010102020302020202040113
:102D9E000202020202010201020202010201020209
:102DAE0002050202020202050101060101070101EC
:102DBE0001020102020103020104020105020106E1
:102DCE0002030502030202020001020602010502CD
:102DDE0001030201020201010201070101060101C4
:102DEE0007010201020306010202020103020104AD
:102DFE00020105020106020107020101030102039D
:102E0E000106020307020301030202030C00010282
:102E1E00050102FF020202000102FF01020400018D
:102E2E0016FF06010201020600010606010101025B
:102E3E000103020202020401020202020401020460
:102E4E0000010C06010401020C000104FF01021036
:102E5E0005011006011005010CFF01030202030219
:102E6E00030302050202010302020301030304002D
:102E7E00010202030201030202030204030105031D
:102E8E000800010201030207020301030A00010206
:102E9E00070202010302070202FF070201FF0103FC
:102EAE0002070202060202050202000102FF0502EB
:102EBE000506020A000102050202030202050202D1
:102ECE00030202FF050202010301020301010304D2
:102EDE00000102FF050202FF020301FF03030604C5
:102EEE000302050302010304020301030301FF02AF
:102EFE00030C000108FF05020C0602020502020384
:102F0E000202050202000102FF0701020102040390
:102F1E00020704020103020201020402020203027A
:102F2E000800010203020202020201020A0001026B
:102F3E000102080501040202010302030102040555
:102F4E00010204020A060102010204020208000143
:102F5E0008FF05020601030706020203020205022C
:102F6E000106020105020C00010205020403020221
:102F7E000502010602020502010602060001020513
:102F8E000201060202050202040202050206010304
:102F9E0001020303010304050202020301030306F7
:102FAE0004030205030401030202030103030602E4
:102FBE00030C00010CFF02030CFF050204FF0502C7
:102FCE0001FF0602020102020402020502010602CC
:102FDE0003000102050202030202050202030202BD
:102FEE00FF050202010302020302010304000102B3
:102FFE00FF05020203030104030503030204030297
:10300E00030302010303020301FF02030201030E85
:10301E000202010302020202020102020202040182
:10302E00020207010301020E03020204020205025C
:10303E000401020302020505020402020103020D4D
:10304E00000102060201070201010304020301034B
:10305E00030202030600010203030105030123011B
:10306E0002030302070302250106050301060302FC
:10307E000503060203010303020203040502020113
:10308E00030102030201030E000108FF0203020105
:10309E00030AFF050202010301020301010306FFF9
:1030AE0003030202030AFF050202010301020301E8
:1030BE00010306FF050202030301040306030302D4
:1030CE0004030305030201030302030301030102C8
:1030DE00030101031002030103030C0202010302A8
:1030EE000202020E01020202020201020E0001049D
:1030FE0004020605020A010210FF0502080302027D
:10310E00050202FF060206030204FF020202FF018D
:10311E000202050101060101010202020202FF0381
:10312E00020202020203020CFF050202020202FF69
:10313E000102060502020302020202020102060554
:10314E000104FF050102010206020204030202FF4E
:10315E000502020302080601020102060202020132
:10316E000202060102050106000104FF0602020327
:10317E000202050206FF030201020201FF0102061E
:10318E00020204050202030202020208030202FF07
:10319E0006020201030206020603020202020201F5
:1031AE0002040202040302080001040302020502E3
:1031BE0006000102030204020202010208060102D5
:1031CE0002020401020203020402020101020D00C6
:1031DE00010AFF030202FF060205010302060204B2
:1031EE0003020202020401020202020205020103AC
:1031FE000207000104030202050206000102030297
:10320E000202020206010201020402020403020289
:10321E00020202010210000104030202FF0602066E
:10322E000302020202040102060202040502020364
:10323E00020CFF010204050102FF02020403020256
:10324E00020202010208FF05010106010101020648
:10325E0002020405020106020203020B0502010628
:10326E000204050202060202050202020202030223
:10327E000A0102020202020001020102020202021D
:10328E00010202060102020202030201020205010C
:10329E000202020208030202060202050216FF03E0
:1032AE00020205020A00010203020A0202010302DF
:1032BE0001060106050106030106000106FF0602CE
:1032CE0008030202020202010202060103010201C8
:1032DE0002020203020302020101020803020205B6
:1032EE00020206020605020603020A050202060291
:1032FE000805020403020A01020202020A01020286
:10330E0002020606010601020A0202020602040574
:10331E000210000102FF05020200010A030202FF71
:10332E000602060302020202020102020102060264
:10333E00020405020203020CFF020201010201FF58
:10334E00030202050208030202050202FF01020641
:10335E00FF050202000128030202FF05020202021B
:10336E000201020CFF050102010202050102010227
:10337E0002050102010202000102FF050101060120
:10338E00010102010202020102040701010102020F
:10339E0002020201020200010407010206010419E1
:1033AE0001010601050001020601020202010302EB
:1033BE0002020204060102020201030202020206D6
:1033CE0007010206010405010106010105010400C1
:1033DE0001020501010601010102010202020102C0
:1033EE0002000102010201070101010201020202B3
:1033FE000102020001040601010701020601050790
:10340E00010106010400010206010202020103028B
:10341E000202020406010202020103020202020477
:10342E00000101020203030203040202030201026D
:10343E000202000102FF0102010202010502010463
:10344E00020103020302020103020302020103024C
:10345E00030202010302010202010102010701013E
:10346E0001020AFF01020200010406010205020226
:10347E000402030302010402030302010402050312
:10348E000201FF02020101020102020C000102FF11
:10349E00040201050201FF05020202020A000102F6
:1034AE00FF05020202020A000102010201070101E8
:1034BE0001020102020103020C01020107010101D6
:1034CE0002010301010202040102080102010701C7
:1034DE000101020102020103020C040201030201B6
:1034EE00040201050201020204010208000102FFAA
:0734FE00010202000104FFBE
:107C070041012B0041012C0042012F000041012EB0
:0F7C1700004201290000410126004200AE01AFEA
:10749F007E007C037DE8124E87E4FCFD9000021213
:1074AF00504FE47F18FEFDFC900002E0F8A3E0F9D6
:1074BF00A3E0FAA3E0FB124F24E47B0CFAF9F812D5
:1074CF004FAF90000212504F900002E0F8A3E0F986
:1074DF00A3E0FAA3E0FBC3E49BFFE49AFE740199D7
:1074EF00FDE498FCE4FB7A01F9F8124FAF90012B01
:1074FF00EFF0900002A3A3A3E0FBC3E49BFF900176
:03750F002CEFF06E
:017512002256
:107CF400E4FFFE124E41F4600E740129F9E43AFAED
:077D04000FBF00010E80EC2F
:017D0B002255
:107986007589117F0512749F90012BE0F58CA3E099
:10799600F58AD2A990012EE0FF2431F582E4340164
:1079A600F583E0F58D74B02FF582E43400F583E0BD
:0579B600F58BD2AB22AD
:10350500EF8EF012505B3C4300033C4A00043C4CF8
:1035150000053C4E00063C5500073C5C00083C5E3F
:1035250000093C65000A3C6C000B3C73000C3C7ABE
:10353500000D3C81000E3C88000F3C8A00103C8C3D
:1035450000113C9300123C9A00133C9C00143CA3D0
:1035550000153CAA00163CB100173CB800183CBA4F
:1035650000193CBC001A3CC3001B3CC5001C3CCCEC
:10357500001D3CD3001E3CDA001F3CDC00203CDE75
:1035850000213CE000223CE700233CEE00243CF512
:1035950000253CFC00263D0300273D0A00283D0C84
:1035A50000293D13002A3D1A002B3D21002C3D2802
:1035B500002D3D2F002E3D31002F3D3300303D3590
:1035C50000313D3700323D3E00333D4500343D4737
:1035D50000353D4E00363D5000373D5700383D5EC5
:1035E50000393D65003A3D6C003B3D73003C3D7A3A
:1035F500003D3D7C003E3D7E003F3D8000403D87D7
:1036050000413D8E00423D9000433D9700443D9E64
:1036150000453DA500463DA700473DAE00483DB5E8
:1036250000493DBC004A3DBE004B3DC5004C3DCC6C
:10363500004D3DD3004E3DD5004F3DD700503DD9FF
:1036450000513DDB00523DDD00533DDF00543DE1BF
:1036550000553DE300563DE500573DE700583DE97F
:1036650000593DEB005A3DED005B3DEF005C3DF13F
:10367500005D3DF8005E3DFA005F3DFC00603DFEEB
:1036850000613E0000623E0200633E0900643E0B9D
:1036950000653E0D00663E0F00673E1100683E1353
:1036A50000693E15006A3E17006B3E1E006C3E2009
:1036B500006D3E27006E3E29006F3E2B00703E2DAB
:1036C50000713E3400723E3B00733E4200743E443E
:1036D50000753E4B00763E5200773E5900783E60BD
:1036E50000793E67007A3E6E007B3E70007C3E7737
:1036F500007D3E79007E3E7B007F3E8200803E89D4
:1037050000813E9000823E9700833E9900843EA052
:1037150000853EA200863EA900873EB000883EB7E0
:1037250000893EBE008A3EC5008B3EC7008C3EC95F
:10373500008D3ECB008E3ECD008F3ECF00903ED11A
:1037450000913ED300923EDA00933EDC00943EDECB
:1037550000953EE000963EE700973EEE00983EF568
:1037650000993EFC009A3EFE009B3F05009C3F0CE5
:10377500009D3F0E009E3F10009F3F1700A03F1E7B
:1037850000A13F2000A23F2700A33F2900A43F2B13
:1037950000A53F3200A63F3900A73F4000A83F42A1
:1037A50000A93F4900AA3F5000AB3F5700AC3F5E20
:1037B50000AD3F6000AE3F6200AF3F6400B03F6BBD
:1037C50000B13F7200B23F7400B33F7600B43F7D55
:1037D50000B53F7F00B63F8100B73F8800B83F8FF7
:1037E50000B93F9600BA3F9D00BB3FA400BC3FAB6C
:1037F50000BD3FAD00BE3FB400BF3FB600C03FBDFA
:1038050000C13FBF00C23FC600C33FC800C43FCA96
:1038150000C53FCC00C63FCE00C73FD000C83FD251
:1038250000C93FD400CA3FD600CB3FD800CC3FDA11
:1038350000CD3FDC00CE3FDE00CF3FE500D03FECC2
:1038450000D13FF300D23FFA00D3400100D4400835
:1038550000D5400F00D6401600D7401800D8401FAD
:1038650000D9402100DA402800DB402A00DC403145
:1038750000DD403800DE403F00DF404600E0404DBF
:1038850000E1405400E2405B00E3406200E4406434
:1038950000E5406600E6406D00E7406F00E84071D6
:1038A50000E9407800EA407A00EB408100EC40886E
:1038B50000ED408F00EE409100EF409300F0409AFC
:1038C50000F1409C00F240A300F340AA00F440AC94
:1038D50000F540AE00F640B000F740B700F840BE36
:1038E50000F940C500FA40CC00FB40D300FC40DAAB
:1038F50000FD40DD00FE40DF00FF40E2010040E545
:10390500010140E7010240EA010340F1010440F4EE
:10391500010540FB010640FD010741040108410680
:1039250001094108010A410B010B410D010C411030
:10393500010D4112010E4114010F41170110411AE9
:103945000111411C0112411F01134122011441259E
:10395500011541270116412A0117412C0118412E55
:1039650001194135011A413C011B4143011C4145E7
:10397500011D414C011E414E011F4150012041577F
:10398500012141590122415B012341620124416426
:1039950001254166012641680127416F01284171D2
:1039A50001294178012A417F012B4186012C41885B
:1039B500012D418A012E4191012F41980130419FEE
:1039C500013141A6013241AD013341B4013441BB5E
:1039D500013541C2013641C9013741D0013841D7CE
:1039E500013941DA013A41DD013B41E0013C41E366
:1039F500013D41E6013E41E9013F41EC014041EF16
:103A0500014141F2014241F90143420001444202B0
:103A15000145420401464206014742080148420B5E
:103A25000149420D014A4210014B4217014C42190E
:103A3500014D421B014E421D014F421F01504221C3
:103A45000151422301524226015342280154422B7F
:103A55000155422D01564230015742330158423536
:103A650001594238015A423B015B423E015C4245E5
:103A7500015D4248015E424F015F4251016042587B
:103A85000161425F016242660163426D01644274F5
:103A9500016542770166427E01674281016842887D
:103AA5000169428A016A428D016B4294016C42961A
:103AB500016D4298016E429A016F42A1017042A3C5
:103AC500017142A5017242A7017342A9017442AB7B
:103AD500017542AD017642AF017742B6017842B831
:103AE500017942BA017A42BC017B42BE017C42C5E2
:103AF500017D42C7017E42CE017F42D5018042D77A
:103B0500018142DE018242E0018342E2018442E911
:103B1500018542F0018642F7018742F9018842FB9F
:103B2500018942FD018A42FF018B4306018C430D49
:103B3500018D4314018E431B018F432201904329BC
:103B4500019143300192433201934334019443364A
:103B5500019543380196433A0197433C0198433E0A
:103B650001994340019A4342019B4344019C4346CA
:103B7500019D4348019E434A019F434C01A0435385
:103B850001A1435A01A2435C01A3435E01A4436022
:103B950001A5436201A6436401A7436601A8436DDD
:103BA50001A9437401AA437601AB437D01AC43846B
:103BB50001AD438B01AE3C0301AF3C0301B03C03B7
:103BC50001B13C0301B23C0601B33C0D01B43C0F0D
:103BD50001B53C1101B63C1301B73C1501B83C17C2
:103BE50001B93C1E01BA3C2501BB3C2701BC3C2E5A
:103BF50001BD3C3501BE3C3C01BF00003C03024316
:103C0500927BFF7A01791C22800F801D8014801918
:103C1500801E7BFF7A03793D227BFF7A0179AD22F5
:103C250080077BFF7A037929227BFF7A0279B62206
:103C35007BFF7A037933227BFF7A037959227BFF55
:103C45007A0379A8228009801E7BFF7A06791222E1
:103C55007BFF7A0379EE22800E7BFF7A0679732249
:103C65007BFF7A0679CE227BFF7A0479F4227BFFEB
:103C75007A077932227BFF7A077942227BFF7A071E
:103C8500797F22800980177BFF7A0879ED227BFFF7
:103C95007A0879192280077BFF7A097972227BFFDE
:103CA5007A087998227BFF7A097985227BFF7A0940
:103CB50079A422801980247BFF7A0B7963228029DD
:103CC5007BFF7A0B79BF227BFF7A0B79C6227BFFBC
:103CD5007A0979F62280048009800E7BFF7A0B79B8
:103CE5001A227BFF7A0C7930227BFF7A0B797322BB
:103CF5007BFF7A0C793A227BFF7A0C7971227BFF64
:103D05007A0C79ED22800E7BFF7A0E79B7227BFF44
:103D15007A0F7912227BFF7A0D79B4227BFF7A0F15
:103D25007952227BFF7A10792B22800D8024801214
:103D3500802E7BFF7A127964227BFF7A10797D22AF
:103D450080107BFF7A1179F32280157BFF7A127937
:103D5500A4227BFF7A1179A7227BFF7A13792F2280
:103D65007BFF7A1179FA227BFF7A137936227BFF62
:103D75007A13799422800B800980177BFF7A157955
:103D850017227BFF7A1479132280077BFF7A157936
:103D950081227BFF7A1479A1227BFF7A1579912202
:103DA50080007BFF7A1579B9227BFF7A1779822209
:103DB5007BFF7A18792B2280077BFF7A1979C82235
:103DC5007BFF7A187956227BFF7A1979D2228042B5
:103DD5008040803E803C803A803880368034803216
:103DE5008030802E802C802A802880267BFF7A1ABE
:103DF500792222805F80248036803B80497BFF7A50
:103E05001B798D22800C800A800880068004800240
:103E150080007BFF7A1A791B2280397BFF7A1A7919
:103E2500D222800B8010801E7BFF7A1B79AF227B0C
:103E3500FF7A1A79DC227BFF7A1B79492280077B7E
:103E4500FF7A1C7937227BFF7A1B7953227BFF7A15
:103E55001C7956227BFF7A1A792C227BFF7A1C79F2
:103E650072227BFF7A1C79852280127BFF7A1D796D
:103E75007A22801780357BFF7A1E79B5227BFF7AFF
:103E85001D7952227BFF7A1F7904227BFF7A1D79E7
:103E9500812280177BFF7A1F790E22800E7BFF7AA5
:103EA5001F7954227BFF7A1F7958227BFF7A1D796F
:103EB500F4227BFF7A1F7965227BFF7A1F79B7226F
:103EC500802E8035801580138011800F80147BFF34
:103ED5007A2179DE228004800280007BFF7A2179B5
:103EE500A9227BFF7A2179B6227BFF7A2179EB2201
:103EF5007BFF7A2079242280007BFF7A21791E229C
:103F05007BFF7A2179FB22800280007BFF7A227970
:103F150083227BFF7A2279902280127BFF7A237994
:103F2500CD22802780177BFF7A24794E227BFF7A6A
:103F35002279F4227BFF7A2479EB22800E7BFF7AAB
:103F4500247938227BFF7A2479F8227BFF7A23793A
:103F5500DA227BFF7A25790522800B802D80327B42
:103F6500FF7A2679BC227BFF7A2579A822801B80DF
:103F7500207BFF7A2679D822801080157BFF7A2650
:103F850079DF227BFF7A2679E6227BFF7A26793351
:103F9500227BFF7A2679AC227BFF7A2679ED227B7C
:103FA500FF7A2779062280387BFF7A2779D122800C
:103FB5003D7BFF7A2779DF2280427BFF7A287926AD
:103FC5002280478067804C80718051807B8056803D
:103FD5005B804080658045806F7BFF7A2979272249
:103FE5007BFF7A2779A6227BFF7A2979A3227BFF9B
:103FF5007A2779D8227BFF7A2979AD227BFF7A2728
:1040050079E6227BFF7A2979B4227BFF7A28792DFC
:104015002280197BFF7A2879A422801E7BFF7A28CB
:1040250079BE2280237BFF7A297902227BFF7A28B9
:10403500797F227BFF7A2979BB227BFF7A2879AEAB
:10404500227BFF7A2979C5227BFF7A2879CB227BCF
:10405500FF7A2979CF227BFF7A2A7912228016806E
:10406500147BFF7A2A799822800B80097BFF7A2AB4
:1040750079F02280007BFF7A2A7958227BFF7A2B00
:104085007912227BFF7A2B797322801280247BFFA1
:104095007A2C79B72280297BFF7A2D7943227BFF01
:1040A5007A2B79CB22800B801080157BFF7A2E79B5
:1040B50029227BFF7A2C7932227BFF7A2E792222E4
:1040C5007BFF7A2C79BE227BFF7A2E7930227BFF0B
:1040D5007A2E795B220241AD80660241B402418AA3
:1040E50080690241987BFF7A2E79E62202419F7B07
:1040F500FF7A2E79FD2280387BFF7A2F791722806F
:104105002F80340241AD80380241B48078803C0272
:10411500419802419F803F0241AD0241B40241BB3B
:1041250080410241C28045804A7BFF7A307918225E
:104135007BFF7A2F7904227BFF7A2F7960228068B2
:104145007BFF7A2E79A8228066803A7BFF7A2E79CA
:10415500D222803F80447BFF7A2F79C42280498018
:104165004E80537BFF7A2F79CC2280517BFF7A2FAB
:1041750079EF227BFF7A2F79FF227BFF7A30799ABC
:10418500228025802A7BFF7A2E79BC227BFF7A301C
:1041950079A1227BFF7A2E79E2227BFF7A2E79EABA
:1041A500227BFF7A3079AE227BFF7A2E7968227BDB
:1041B500FF7A2E79AC227BFF7A2F79C8227BFF7A92
:1041C5002F79D0227BFF7A3079B5227BFF7A30793F
:1041D500C22202430602430D02431402431B02425C
:1041E500FF02430602430D0243140243147BFF7A88
:1041F500317937227BFF7A31793E228056804D8096
:1042050052805702428D80600243067BFF7A3179E6
:104215009E22803F8036803B80408045804A024315
:1042250006804F024306805402430602430D805820
:104235000242E90242F00242C77BFF7A3279AD229F
:104245000243067BFF7A3279CC2280077BFF7A31E5
:10425500795E227BFF7A317951227BFF7A31797A37
:10426500227BFF7A3179E1227BFF7A31798B220239
:1042750043067BFF7A3179E5220243067BFF7A32DA
:10428500792B22807C02430D7BFF7A317984228051
:10429500538058802D7BFF7A3379242280638032C6
:1042A500805F80648037803C80417BFF7A33794E24
:1042B50022801F804C805180247BFF7A33795B22DA
:1042C50080297BFF7A327955227BFF7A33795F2209
:1042D500802F7BFF7A33792E228026802B7BFF7AF5
:1042E500337947227BFF7A327941227BFF7A327913
:1042F5004822800D80128017801C7BFF7A31792D32
:10430500227BFF7A317908227BFF7A317912227B71
:10431500FF7A317919227BFF7A31791D227BFF7A69
:10432500337969227BFF7A33797322803B80508011
:10433500408045804A803A800E8026802B804080D0
:10434500308035803A802A7BFF7A34799E227BFF44
:104355007A3479AF22801180268016801B802080D8
:10436500107BFF7A3479A5227BFF7A337989228005
:104375000E7BFF7A347972227BFF7A347991227B26
:10438500FF7A347944227BFF7A3479FE227BFF7AE7
:044395000079D022B9
:10509400EFC39401400DEFD394035007EF25E024B0
:1050A400168037EFC39404400DEFD394075007EFF5
:1050B40025E024158024EFC39408400DEFD3940910
:1050C4005007EF25E024098011EFC3940A400FEF45
:1050D400D3940C5009EF25E0240A90005CF0E4FF1F
:1050E400EF75F00CA4FE90005CE0FD2EFC25E0249E
:1050F40040F582E43400F583E493FA740193FBEF02
:1051040075F00EA4245EF582E43400F583EAF0A37E
:10511400EBF0EC25E02444F582E43400F583E493D9
:10512400FA740193FBEF75F00EA42460F582E43465
:1051340000F583EAF0A3EBF0ED2EFE25E02448F51C
:1051440082E43400F583E493FC740193FDEF75F07D
:105154000EA42462F582E43400F583ECF0A3EDF0B0
:10516400EE25E0244AF582E43400F583E493FC74EC
:105174000193FDEF75F00EA42464F582E43400F588
:1051840083ECF0A3EDF0EF75F00CA4FE90005CE06E
:10519400FD2EFC25E0244EF582E43400F583E493EF
:1051A400FA740193FBEF75F00EA42466F582E434DF
:1051B40000F583EAF0A3EBF0EC25E02452F582E459
:1051C4003400F583E493FA740193FBEF75F00EA4B5
:1051D4002468F582E43400F583EAF0A3EBF0ED2EC5
:1051E400FE25E02456F582E43400F583E493FC7450
:1051F4000193FDEF75F00EA4246AF582E43400F502
:1052040083ECF0A3EDF0EE25E02442F582E43400D3
:10521400F583E493FC740193FDEF75F00AA42488EC
:10522400F582E43400F583ECF0A3EDF0EF75F00CB7
:10523400A4FE90005CE0FD2EFC25E02446F582E40B
:105244003400F583E493FA740193FBEF75F00AA438
:10525400248AF582E43400F583EAF0A3EBF0EC252C
:10526400E0244CF582E43400F583E493FA7401936A
:10527400FBEF75F00AA4248CF582E43400F583EA8C
:10528400F0A3EBF0ED2EFE25E02450F582E434008B
:10529400F583E493FC740193FDEF75F00AA4248E66
:1052A400F582E43400F583ECF0A3EDF0EE25E02480
:1052B40054F582E43400F583E493FC740193FDEF28
:1052C40075F00AA42490F582E43400F583ECF0A38D
:1052D400EDF00FEF640360030250E490005CE0FF24
:1052E40025E02488F582E43400F583E493FD740119
:1052F400939000A6CDF0A3EDF0EF25E0248CF58289
:10530400E43400F583E493FF7401939000A8CFF094
:10531400A3EFF0E490005DF090005DE0F9C3942603
:105324004003025434E925E0245EF582E43400F5B8
:1053340083E0FEA3E0FF7C007D0C124E87AB07AA3E
:1053440006E4F9F8FF7E367D6E0C1278C4EC124D3B
:1053540082E4FBFAF9783F124C7C124DC09000AC09
:10536400EEF0FCA3EFF09000AAEEF0A3EFF0FBE464
:10537400C39BFFE49CFE74019400FDE49400FCE4F0
:10538400FB7A01F9F81278C490005DE02431F582CB
:10539400E43401F583EFF09000ACE0FEA3E0FBE41D
:1053A400C39BFFE49EFE74019400FDE49400FCE4BE
:1053B400FB7A01F9F81278C490005DE024B0F5821C
:1053C400E43400F583EBF09000AAE0FEA3E0FBE4F4
:1053D400C39BFFE49EFE74019400FDE49400FCE48E
:1053E400FB7A01F9F81278C490005DE024D7F582C5
:1053F400E43400F583EFF09000AAE0FEA3E0FBE4C0
:10540400C39BFFE49EFE74019400FDE49400FCE45D
:10541400FB7A01F9F81278C490005DE024FDF5826E
:10542400E43400F583EBF090005DE004F002531CDB
:10543400900123E0FBA3E0FAA3E0F990012FE0FE42
:10544400A3E0FFE92FF9EA3EFA900001124E5A75E3
:10545400F007A4FD900123A3E0FAA3E0F98F828E64
:0B54640083124E5A2D24F890012EF008
:01546F00221A
:1054700090005AEEF0A3EFF0C39403EE9400400FB7
:10548000D3E0940990005AE0940050030255CB9069
:10549000005AE07004A3E0640A70057F0B02580D07
:1054A00090005AE0FEA3E0FFC3940BEE9400400E80
:1054B000D3EF940CEE940050057F0A02580D900033
:1054C0005AE0FEA3E0FFC3940DEE9400400ED3EF2C
:1054D0009416EE940050057F0202580D90005AE099
:1054E000FEA3E0FFC39417EE9400400ED3EF941C8C
:1054F000EE940050057F0302580D90005AE07004AE
:10550000A3E0641D70057F0502580D90005AE0FE6F
:10551000A3E0FFC3941EEE9400400ED3EF9425EE5B
:10552000940050057F0302580D90005AE0FEA3E05E
:10553000FFC39426EE9400400ED3EF9429EE94001E
:1055400050057F0502580D90005AE07004A3E064F6
:105550002A70057F0C02580D90005AE0FEA3E0FF70
:10556000C3942BEE9400400ED3EF942CEE94005095
:10557000057F0502580D90005AE0FEA3E0FFC3949A
:105580002DEE9400400ED3EF943BEE940050057F37
:105590000202580D90005AE0FEA3E0FFC3943CEED7
:1055A0009400400ED3EF9445EE940050057F020224
:1055B000580D90005AE0FEA3E0FFC39446EE94001D
:1055C000400ED3EF9448EE940050057F0402580D2E
:1055D00090005AE0FEA3E0FFC39449EE9400400E11
:1055E000D3EF944DEE940050057F0302580D9000C8
:1055F0005AE0FEA3E0FFC3944EEE9400400ED3EFBA
:105600009472EE940050057F0702580D90005AE006
:10561000FEA3E0FFC39473EE9400400ED3EF9479A1
:10562000EE940050057F0802580D90005AE0FEA34A
:10563000E0FFC3947AEE9400400ED3EF9486EE948C
:105640000050057F0402580D90005AE0FEA3E0FFD1
:10565000C39487EE9400400ED3EF9489EE940050EB
:10566000057F0A02580D9000AEE0FEA3E0FFC39450
:105670008AEE9400400ED3EF949AEE940050057F8A
:105680000C02580D9000AEE0FEA3E0FFC3949BEE29
:105690009400400ED3EF949CEE940050057F0702D7
:1056A000580D9000AEE0FEA3E0FFC3949DEE940081
:1056B000400ED3EF94ACEE940050057F0502580DD8
:1056C0009000AEE0FEA3E0FFC394ADEE9400400E68
:1056D000D3EF94B7EE940050057F0802580D900068
:1056E000AEE0FEA3E0FFC394B8EE9400400ED3EF0B
:1056F00094BBEE940050057F0202580D9000AEE07E
:10570000FEA3E0FFC394BCEE9400400ED3EF94E2FE
:10571000EE940050057F0402580D9000AEE0FEA309
:10572000E0FFC394E3EE9400400ED3EF94ECEE94CC
:105730000050057F0302580D9000AEE0FEA3E0FF8D
:10574000C394EDEE9400400ED3EF94FBEE94005022
:10575000057F0302580D9000AEE0FEA3E0FFC39466
:10576000FCEE9400400ED3EF9438EE940150057F88
:105770000A02580D9000AEE0FEA3E0FFC39439EE9C
:105780009401400DD3EF9490EE940150047F028079
:105790007C9000AEE0FEA3E0FFC39491EE94014044
:1057A0000DD3EF94AEEE940150047F02805F900021
:1057B000AEE0B40109A3E0B4AF047F02804F9000D3
:1057C000AEE0B40109A3E0B4B0047F02803F9000D2
:1057D000AEE0B40109A3E0B4B1047F04802F9000CF
:1057E000AEE0B40109A3E0B4B2047F04801F9000CE
:1057F000AEE0FEA3E0FFC394B3EE9401400DD3EFFF
:1058000094BFEE940150047F0380027F01125094F4
:015810002275
:10674900C3EF94B3EE9401400CD3EF94BFEE9401E0
:1067590050037F1A22C3EF9403EE9400400CD3EF49
:10676900940CEE940050037F1A22C3EF940DEE941B
:1067790000400CD3EF9416EE940050037F3622C3E9
:10678900EF9417EE9400400CD3EF9425EE9400504B
:10679900037F2C22C3EF9426EE9400400CD3EF9490
:1067A9002CEE940050037F2022C3EF942DEE940029
:1067B900400CD3EF943BEE940050037F1922C3EFB2
:1067C900943CEE9400400CD3EF9445EE94005003B2
:1067D9007F1922C3EF9446EE9400400CD3EF9448FE
:1067E900EE940050037F1522C3EF9449EE940040C4
:1067F9000CD3EF944DEE940050037F1922C3EF940C
:106809004EEE9400400CD3EF9479EE940050037F40
:106819001B22C3EF947AEE9400400CD3EF9489EED7
:10682900940050037F1422C3EF948AEE9400400C25
:10683900D3EF949CEE940050037F1D22C3EF949DE7
:10684900EE9400400CD3EF94ACEE940050037F20FB
:1068590022C3EF94ADEE9400400CD3EF94BBEE94B9
:106869000050037F2822C3EF94BCEE9400400CD360
:10687900EF94E2EE940050037F2622C3EF94E3EEF7
:106889009400400CD3EF94ECEE940050037F252242
:10689900C3EF94EDEE9400400CD3EF94FBEE94001B
:1068A90050037F2222C3EF94FCEE9400400CD3EFF7
:1068B9009438EE940150037F1922C3EF9439EE9472
:1068C90001400CD3EF9490EE940150037F2122C331
:1068D900EF9491EE9401400CD3EF94AEEE940150F5
:1068E900037F2822BE0106BFAF037F3C22BE0106FB
:1068F900BFB0037F3C22BE0106BFB1037F3C22BE6D
:0B6909000106BFB2037F3C227F3C224E
:107D800090005A7401F0A374C9F0123505127CF406
:017D900022D0
:10787F00900058EEF0A3EFF0123505900123EBF0D6
:10788F00A3EAF0A3E9F0900058E0FEA3E0FF125442
:10789F0070900058E0FEA3E0FF1267499000D6EF0A
:1078AF00F0900058E0FEA3E0FF127D80900127EEDC
:0578BF00F0A3EFF02230
:107B5C00E4FDED25E0242EF582E43400F583740178
:107B6C0093B50708E493B506037F00220DEDB41519
:037B7C00E17F01A5
:017B7F0022E3
:10691400EF8EF012505B69AE000C69DE001669D28E
:10692400002569C6002C69A2003B6A5100456A46ED
:1069340000486A5C004D698A00796A0200896A0D20
:10694400009C6A2400AC6A2F00BB699600E2697E51
:1069540000EC69BA00FB69F7013869EB01906A1928
:1069640001AE697201B26A3B01BF00006A6890001F
:10697400AEE4F0A374E3F0026A769000AEE4F0A310
:10698400744EF0026A769000AEE4F0A374BCF00298
:106994006A769000AEE4F0A3742DF0026A7690005B
:1069A400AEE4F0A37403F0026A769000AEE4F0A3C0
:1069B40074EDF0026A769000AEE4F0A37426F0025F
:1069C4006A769000AEE4F0A37417F0026A76900041
:1069D400AEE4F0A3740DF0026A769000AE7401F098
:1069E400A37439F0026A769000AEE4F0A374FCF06C
:1069F400026A769000AEE4F0A3747AF0807490009A
:106A0400AEE4F0A3748AF080699000AE7401F0A340
:106A14007491F0805D9000AEE4F0A3749DF0805218
:106A24009000AEE4F0A374ADF080479000AE740122
:106A3400F0A374B3F0803B9000AEE4F0A37446F08E
:106A440080309000AEE4F0A3743CF080259000AE5A
:106A5400E4F0A37449F0801A9000AE7401F0A374BA
:106A6400AFF0800E9000AFE004F070069000AEE04E
:106A740004F09000AEE0FEA3E0FF12787F900123C3
:106A8400E0FBA3E0FAA3E0F990012FE0FEA3E0FF0E
:106A9400E92FF9EA3EFA900001124E5A75F007A464
:106AA400FD900123A3E0FAA3E0F98F828E83124EB6
:106AB4005A2D24F890012EF0D2B2E0FF2431F58251
:106AC400E43401F583E0F58D74B02FF582E43400ED
:066AD400F583E0F58B22C2
:107B3700E4900126F090012D04F0E4900129F0A3D0
:107B4700F090012FF0A3F09000AEE0FEA3E0FF124B
:057B57006914D28E222A
:03000B000270E69A
:1070E600C0E0C0F0C083C082C0D075D000C000C070
:1070F60001C002C003C004C005C006C00790012B32
:10710600E0F58CA3E0F58A900126E060030271F7B2
:10711600900123E0FBA3E0FAA3E0F990012FE0FE43
:10712600A3E0FFE92FF9EA3EFA900002124E5AFF59
:107136009000D6E08FF0A424FFFFE5F034FFFEC3F5
:1071460090012AE09F900129E09E500FA3E004F0F1
:107156007006900129E004F002720C900129E4F017
:10716600A3F0900130E02403F090012FE03400F00A
:10717600900123E0FBA3E0FAA3E0F990012FE0FEE3
:10718600A3E0FFF5828E83124E5A9001236028A356
:10719600A3E02FF9EA3EFA900001124E5A75F00765
:1071A600A4FD900123A3E0FAA3E0F98F828E831257
:1071B6004E5A2D24F88034E0FBA3E0FAA3E0F990C0
:1071C600012FE0FEA3E0FFE92FF9EA3EFA90000165
:1071D600124E5A75F007A4FD900123A3E0FAA3E02E
:1071E600F98F828E83124E5A2D24F590012EF0804F
:1071F600159000AEE0FEA3E0FF127B5C90012DEF40
:10720600F06003127B37D007D006D005D004D00338
:10721600D002D001D000D0D0D082D083D0F0D0E040
:017226003235
:03001B0002722747
:10722700C0E0C083C082C0D075D000C000C001C01C
:1072370002C003C004C005C006C007900127E0FED6
:10724700A3E0FF90012FE0FCA3E0FDC39FEC9E505D
:107257005390012EE0FF30B21624D7F582E43400B4
:10726700F583E0F58D74FD2FF582E4340080142456
:1072770031F582E43401F583E0F58D74B02FF582A2
:10728700E43400F583E0F58B900123E0FBA3E0FAFB
:10729700A3E0F98D828C83124E5A6004B2B2801D2E
:1072A700D2B28019C28ED2B29001267401F0900139
:1072B70029E4F0A3F0A3E0F58CA3E0F58AD007D08A
:1072C70006D005D004D003D002D001D000D0D0D052
:0672D70082D083D0E032FA
:107D0C00D2BDE4F5C875CBFF75CAEC85CBCD85CA61
:047D1C00CCD2AD22F6
:107BA200EF24FF92B59297928792A2928392B69215
:107BB200A6928192909292928592A492A192B1926F
:027BC20094220B
:107BC400EF24FF92B49296928692A3928292B792F5
:107BD400A7928092919293928492A5929592B09258
:027BE400A022DD
:0C7C2700EEF0A3EFF0A3EDF0F45401FF29
:107C3300EF24FF92B592B49297929692879286928E
:047C4300A292A32244
:0C794A00EEF0A3EFF0A3EDF0F45401FF09
:10795600EF24FF9283928292B692B792A692A79252
:107966008192809290929192929293929492A09206
:10797600B192B092A1929592A492A59285928422F8
:0C7D2000EEF0A3EFF0EDA3F0F45401FF2F
:087D2C00AE07127C3302795608
:076E3A00E0FEA3E0FFE4FD10
:106E4100900009127D20E024FF9293900009E0FE5A
:106E5100A3E0FF127C8590000BE024FF92949292B4
:106E6100900009E0FEA3E0FF127C8590000BE02476
:106E7100FF92A09291900009E0FEA3E0FF127C85B1
:106E810090000BE024FF92B19290900009E0FEA3E4
:106E9100E0FF127C8590000BE024FF92B09280907D
:106EA1000009E0FEA3E0FF127C8590000BE024FFC7
:106EB10092A19281900009E0FEA3E0FF127C8590EF
:106EC100000BE024FF929592A7900009E0FEA3E059
:106ED100FF127C8590000BE024FF92A492A6900003
:106EE10009E0FEA3E0FF127C8590000BE024FF92F5
:106EF100A592B7900009E0FEA3E0FF127C85900007
:106F01000BE024FF928592B6900009E0FEA3E0FF1A
:106F1100127C8590000BE024FF92849282900009FC
:106F2100E0FEA3E0FF127C8590000BE024FF92833A
:106F3100900009E0FEA3E0FF127C8590000BE024A5
:106F4100FF92A39296900009E0FEA3E0FF127C85D8
:106F510090000BE024FF92A29297900009E0FEA31B
:106F6100E0FF127C8590000BE024FF928692B490A2
:106F71000009E0FEA3E0FF127C8590000BE024FFF6
:0F6F8100928792B5900009E0FEA3E0FF027C85A5
:076F9000E0FEA3E0FFE4FDB9
:106F9700900009127D20E024FF92B59287900009A6
:106FA700E0FEA3E0FF127C8590000BE024FF92B483
:106FB7009286900009E0FEA3E0FF127C8590000B0B
:106FC700E024FF929792A2900009E0FEA3E0FF124F
:106FD7007C8590000BE024FF929692A3900009E035
:106FE700FEA3E0FF127C8590000BE024FF928390C4
:106FF7000009E0FEA3E0FF127C8590000BE024FF70
:1070070092829284900009E0FEA3E0FF127C8590B3
:10701700000BE024FF92B69285900009E0FEA3E002
:10702700FF127C8590000BE024FF92B792A5900099
:1070370009E0FEA3E0FF127C8590000BE024FF929D
:10704700A692A4900009E0FEA3E0FF127C859000C1
:107057000BE024FF92A79295900009E0FEA3E0FFC2
:10706700127C8590000BE024FF928192A190000989
:10707700E0FEA3E0FF127C8590000BE024FF9280E6
:1070870092B0900009E0FEA3E0FF127C8590000B10
:10709700E024FF929092B1900009E0FEA3E0FF1276
:1070A7007C8590000BE024FF929192A0900009E06C
:1070B700FEA3E0FF127C8590000BE024FF929292E2
:1070C70094900009E0FEA3E0FF127C8590000BE09E
:0F70D70024FF9293900009E0FEA3E0FF027C8566
:1063AD00900006127D20E024FF92B59287900006A2
:1063BD00E0FEA3E0FF127C85900008E0FFF413924D
:1063CD00B59287EF24FF92B49286900006E0FEA36B
:1063DD00E0FF127C85900008E0FFF41392B49286E2
:1063ED00EF24FF929792A2900006E0FEA3E0FF1229
:1063FD007C85900008E0FFF413929792A2EF24FFA2
:10640D00929692A3900006E0FEA3E0FF127C859089
:10641D000008E0FFF413929692A3EF24FF9283906D
:10642D000006E0FEA3E0FF127C85900008E0FFF47B
:10643D00139283EF24FF92829284900006E0FEA3D4
:10644D00E0FF127C85900008E0FFF41392829284A5
:10645D00EF24FF92B69285900006E0FEA3E0FF12B6
:10646D007C85900008E0FFF41392B69285EF24FF2F
:10647D0092B792A5900006E0FEA3E0FF127C8590F6
:10648D000008E0FFF41392B792A5EF24FF92A692B5
:10649D00A4900006E0FEA3E0FF127C85900008E0CA
:1064AD00FFF41392A692A4EF24FF92A79295900069
:1064BD0006E0FEA3E0FF127C85900008E0FFF413D8
:1064CD0092A79295EF24FF928192A1900006E0FE93
:1064DD00A3E0FF127C85900008E0FFF413928192F7
:1064ED00A1EF24FF928092B0900006E0FEA3E0FFA2
:1064FD00127C85900008E0FFF413928092B0EF2497
:10650D00FF929092B1900006E0FEA3E0FF127C8511
:10651D00900008E0FFF413929092B1EF24FF929156
:10652D0092A0900006E0FEA3E0FF127C859000088B
:10653D00E0FFF413929192A0EF24FF929292949027
:10654D000006E0FEA3E0FF127C85900008E0FFF45A
:10655D001392929294EF24FF9293900006E0FEA383
:0E656D00E0FF127C85900008E0F41392932268
:10657B00900006127D20E024FF9293900006E0FE2F
:10658B00A3E0FF127C85900008E0FFF4139293EFD9
:10659B0024FF92929294900006E0FEA3E0FF127CFF
:1065AB0085900008E0FFF41392929294EF24FF92EF
:1065BB009192A0900006E0FEA3E0FF127C85900074
:1065CB0008E0FFF413929192A0EF24FF929092B106
:1065DB00900006E0FEA3E0FF127C85900008E0FF30
:1065EB00F413929092B1EF24FF928092B090000638
:1065FB00E0FEA3E0FF127C85900008E0FFF413920D
:10660B008092B0EF24FF928192A1900006E0FEA34E
:10661B00E0FF127C85900008E0FFF413928192A1B9
:10662B00EF24FF92A79295900006E0FEA3E0FF12E5
:10663B007C85900008E0FFF41392A79295EF24FF5E
:10664B0092A692A4900006E0FEA3E0FF127C859038
:10665B000008E0FFF41392A692A4EF24FF92B792E6
:10666B00A5900006E0FEA3E0FF127C85900008E0F9
:10667B00FFF41392B792A5EF24FF92B69285900088
:10668B0006E0FEA3E0FF127C85900008E0FFF41308
:10669B0092B69285EF24FF92829284900006E0FEE0
:1066AB00A3E0FF127C85900008E0FFF41392829226
:1066BB0084EF24FF9283900006E0FEA3E0FF127CA0
:1066CB0085900008E0FFF4139283EF24FF929692DB
:1066DB00A3900006E0FEA3E0FF127C85900008E08B
:1066EB00FFF413929692A3EF24FF929792A290003D
:1066FB0006E0FEA3E0FF127C85900008E0FFF41398
:10670B00929792A2EF24FF92B49286900006E0FE3D
:10671B00A3E0FF127C85900008E0FFF41392B49283
:10672B0086EF24FF92B59287900006E0FEA3E0FF70
:0E673B00127C85900008E0F41392B59287223C
:0F480B00900006EEF0A3EFF0A3ECF0A3EDF0EBBE
:10481A00127D26E4A3F090000BE0FFC3940240034C
:10482A00024C7B90000AE0FE24FF92839293EF7081
:10483A0007EE24FF92B5800F90000BE0B4010890B8
:10484A00000AE024FF92A3900006E0FEA3E0FF1214
:10485A007C8590000AE0F4FF1392839293A3E0FE12
:10486A007006EF1392B5800CEEB4010890000AE0CE
:10487A00F41392A3900008E0FEA3E0FF127C859057
:10488A00000AE0FF24FF92829294A3E0FE7007EFF1
:10489A0024FF92B4800CEEB4010890000AE024FFD1
